{
  "_format": "hh-sol-artifact-1",
  "contractName": "Pharmacy",
  "sourceName": "contracts/Roles/Pharmacy.sol",
  "abi": [
    {
      "inputs": [],
      "stateMutability": "nonpayable",
      "type": "constructor"
    },
    {
      "anonymous": false,
      "inputs": [
        {
          "indexed": true,
          "internalType": "address",
          "name": "account",
          "type": "address"
        },
        {
          "indexed": false,
          "internalType": "uint256",
          "name": "accNum",
          "type": "uint256"
        }
      ],
      "name": "PHAdded",
      "type": "event"
    },
    {
      "anonymous": false,
      "inputs": [
        {
          "indexed": true,
          "internalType": "address",
          "name": "account",
          "type": "address"
        }
      ],
      "name": "PHRemoved",
      "type": "event"
    },
    {
      "inputs": [
        {
          "internalType": "address",
          "name": "account",
          "type": "address"
        }
      ],
      "name": "addThisAsPH",
      "outputs": [],
      "stateMutability": "nonpayable",
      "type": "function"
    },
    {
      "inputs": [
        {
          "internalType": "uint256",
          "name": "accNumber",
          "type": "uint256"
        }
      ],
      "name": "getPHaddr",
      "outputs": [
        {
          "internalType": "address",
          "name": "",
          "type": "address"
        }
      ],
      "stateMutability": "view",
      "type": "function"
    },
    {
      "inputs": [
        {
          "internalType": "address",
          "name": "account",
          "type": "address"
        }
      ],
      "name": "isPH",
      "outputs": [
        {
          "internalType": "bool",
          "name": "",
          "type": "bool"
        }
      ],
      "stateMutability": "view",
      "type": "function"
    },
    {
      "inputs": [],
      "name": "showAllPH",
      "outputs": [],
      "stateMutability": "view",
      "type": "function"
    }
  ],
  "bytecode": "0x608060405234801561001057600080fd5b5060006002819055506108a4806100286000396000f3fe608060405234801561001057600080fd5b506004361061004c5760003560e01c8063067ed25714610051578063206e348814610081578063432f20a61461008b5780638056b4b4146100bb575b600080fd5b61006b60048036038101906100669190610589565b6100d7565b60405161007891906105d1565b60405180910390f35b6100896100f4565b005b6100a560048036038101906100a09190610622565b6101ab565b6040516100b2919061065e565b60405180910390f35b6100d560048036038101906100d09190610589565b6101c8565b005b60006100ed8260006101fb90919063ffffffff16565b9050919050565b6000805b6002548110156101a75760058161010f91906106a8565b915061019a6040518060400160405280600e81526020017f506861726d616379206163632320000000000000000000000000000000000000815250826040518060400160405280600281526020017f3a2000000000000000000000000000000000000000000000000000000000000081525061019586600061028c90919063ffffffff16565b6102cc565b80806001019150506100f8565b5050565b60006101c182600061028c90919063ffffffff16565b9050919050565b6101e08160056002546101db91906106a8565b61036e565b600260008154809291906101f3906106ea565b919050555050565b60008073ffffffffffffffffffffffffffffffffffffffff168273ffffffffffffffffffffffffffffffffffffffff160361023557600080fd5b8260010160008373ffffffffffffffffffffffffffffffffffffffff1673ffffffffffffffffffffffffffffffffffffffff16815260200190815260200160002060009054906101000a900460ff16905092915050565b600082600001600083815260200190815260200160002060009054906101000a900473ffffffffffffffffffffffffffffffffffffffff16905092915050565b610368848484846040516024016102e694939291906107d1565b6040516020818303038152906040527f7c4632a4000000000000000000000000000000000000000000000000000000007bffffffffffffffffffffffffffffffffffffffffffffffffffffffff19166020820180517bffffffffffffffffffffffffffffffffffffffffffffffffffffffff83818316178352505050506103d6565b50505050565b610384828260006103f09092919063ffffffff16565b8173ffffffffffffffffffffffffffffffffffffffff167f208939ccf3c0b1e4d56ede20000b38c0154e92a4137f57f8f75c6568488c4a3a826040516103ca9190610824565b60405180910390a25050565b6103ed816103e56104f0610511565b63ffffffff16565b50565b600073ffffffffffffffffffffffffffffffffffffffff168273ffffffffffffffffffffffffffffffffffffffff160361042957600080fd5b61043383836101fb565b1561043d57600080fd5b8183600001600083815260200190815260200160002060006101000a81548173ffffffffffffffffffffffffffffffffffffffff021916908373ffffffffffffffffffffffffffffffffffffffff16021790555060018360010160008473ffffffffffffffffffffffffffffffffffffffff1673ffffffffffffffffffffffffffffffffffffffff16815260200190815260200160002060006101000a81548160ff021916908315150217905550505050565b60006a636f6e736f6c652e6c6f679050600080835160208501845afa505050565b61051c819050919050565b61052461083f565b565b600080fd5b600073ffffffffffffffffffffffffffffffffffffffff82169050919050565b60006105568261052b565b9050919050565b6105668161054b565b811461057157600080fd5b50565b6000813590506105838161055d565b92915050565b60006020828403121561059f5761059e610526565b5b60006105ad84828501610574565b91505092915050565b60008115159050919050565b6105cb816105b6565b82525050565b60006020820190506105e660008301846105c2565b92915050565b6000819050919050565b6105ff816105ec565b811461060a57600080fd5b50565b60008135905061061c816105f6565b92915050565b60006020828403121561063857610637610526565b5b60006106468482850161060d565b91505092915050565b6106588161054b565b82525050565b6000602082019050610673600083018461064f565b92915050565b7f4e487b7100000000000000000000000000000000000000000000000000000000600052601160045260246000fd5b60006106b3826105ec565b91506106be836105ec565b92508282026106cc816105ec565b915082820484148315176106e3576106e2610679565b5b5092915050565b60006106f5826105ec565b91507fffffffffffffffffffffffffffffffffffffffffffffffffffffffffffffffff820361072757610726610679565b5b600182019050919050565b600081519050919050565b600082825260208201905092915050565b60005b8381101561076c578082015181840152602081019050610751565b60008484015250505050565b6000601f19601f8301169050919050565b600061079482610732565b61079e818561073d565b93506107ae81856020860161074e565b6107b781610778565b840191505092915050565b6107cb816105ec565b82525050565b600060808201905081810360008301526107eb8187610789565b90506107fa60208301866107c2565b818103604083015261080c8185610789565b905061081b606083018461064f565b95945050505050565b600060208201905061083960008301846107c2565b92915050565b7f4e487b7100000000000000000000000000000000000000000000000000000000600052605160045260246000fdfea26469706673582212205a284494bf0f5abf12d4f7691ba27e1b6f9ab51099522917dff15336a96c10fb64736f6c63430008180033",
  "linkReferences": {},
  "deployedLinkReferences": {}
}