{
  "_format": "hh-sol-artifact-1",
  "contractName": "SupplyChain",
  "sourceName": "contracts/SupplyChain.sol",
  "abi": [
    {
      "inputs": [],
      "stateMutability": "nonpayable",
      "type": "constructor"
    },
    {
      "anonymous": false,
      "inputs": [
        {
          "indexed": false,
          "internalType": "uint256",
          "name": "discountCode",
          "type": "uint256"
        },
        {
          "indexed": false,
          "internalType": "uint256",
          "name": "drugID",
          "type": "uint256"
        },
        {
          "indexed": false,
          "internalType": "address",
          "name": "ins",
          "type": "address"
        }
      ],
      "name": "DiscountCodeAddedIN",
      "type": "event"
    },
    {
      "anonymous": false,
      "inputs": [
        {
          "indexed": false,
          "internalType": "uint256",
          "name": "id",
          "type": "uint256"
        },
        {
          "indexed": false,
          "internalType": "string",
          "name": "name",
          "type": "string"
        },
        {
          "indexed": false,
          "internalType": "uint256",
          "name": "quantity",
          "type": "uint256"
        },
        {
          "indexed": false,
          "internalType": "uint256",
          "name": "price",
          "type": "uint256"
        }
      ],
      "name": "DrugAdded",
      "type": "event"
    },
    {
      "anonymous": false,
      "inputs": [
        {
          "indexed": false,
          "internalType": "uint256",
          "name": "drugID",
          "type": "uint256"
        },
        {
          "indexed": false,
          "internalType": "uint256",
          "name": "quantity",
          "type": "uint256"
        },
        {
          "indexed": false,
          "internalType": "address",
          "name": "phAddr",
          "type": "address"
        }
      ],
      "name": "DrugAddedPH",
      "type": "event"
    },
    {
      "anonymous": false,
      "inputs": [
        {
          "indexed": false,
          "internalType": "uint256",
          "name": "drugID",
          "type": "uint256"
        },
        {
          "indexed": false,
          "internalType": "uint256",
          "name": "quantity",
          "type": "uint256"
        },
        {
          "indexed": false,
          "internalType": "address",
          "name": "wdAddr",
          "type": "address"
        }
      ],
      "name": "DrugAddedWD",
      "type": "event"
    },
    {
      "anonymous": false,
      "inputs": [
        {
          "indexed": true,
          "internalType": "address",
          "name": "account",
          "type": "address"
        }
      ],
      "name": "INAdded",
      "type": "event"
    },
    {
      "anonymous": false,
      "inputs": [
        {
          "indexed": true,
          "internalType": "address",
          "name": "account",
          "type": "address"
        }
      ],
      "name": "INRemoved",
      "type": "event"
    },
    {
      "anonymous": false,
      "inputs": [
        {
          "indexed": true,
          "internalType": "address",
          "name": "account",
          "type": "address"
        }
      ],
      "name": "MAAdded",
      "type": "event"
    },
    {
      "anonymous": false,
      "inputs": [
        {
          "indexed": true,
          "internalType": "address",
          "name": "account",
          "type": "address"
        }
      ],
      "name": "MARemoved",
      "type": "event"
    },
    {
      "anonymous": false,
      "inputs": [
        {
          "indexed": true,
          "internalType": "address",
          "name": "account",
          "type": "address"
        },
        {
          "indexed": false,
          "internalType": "uint256",
          "name": "accNum",
          "type": "uint256"
        }
      ],
      "name": "PHAdded",
      "type": "event"
    },
    {
      "anonymous": false,
      "inputs": [
        {
          "indexed": true,
          "internalType": "address",
          "name": "account",
          "type": "address"
        }
      ],
      "name": "PHRemoved",
      "type": "event"
    },
    {
      "anonymous": false,
      "inputs": [
        {
          "indexed": false,
          "internalType": "uint256",
          "name": "reqID",
          "type": "uint256"
        },
        {
          "indexed": false,
          "internalType": "address",
          "name": "phar",
          "type": "address"
        },
        {
          "indexed": false,
          "internalType": "address",
          "name": "wd",
          "type": "address"
        }
      ],
      "name": "ReqConfirmedByPH",
      "type": "event"
    },
    {
      "anonymous": false,
      "inputs": [
        {
          "indexed": false,
          "internalType": "uint256",
          "name": "drugID",
          "type": "uint256"
        },
        {
          "indexed": false,
          "internalType": "uint256",
          "name": "q",
          "type": "uint256"
        },
        {
          "indexed": false,
          "internalType": "uint256",
          "name": "totalPrice",
          "type": "uint256"
        },
        {
          "indexed": false,
          "internalType": "address",
          "name": "toWD",
          "type": "address"
        }
      ],
      "name": "SendRequestByPH",
      "type": "event"
    },
    {
      "anonymous": false,
      "inputs": [
        {
          "indexed": false,
          "internalType": "uint256",
          "name": "drugID",
          "type": "uint256"
        },
        {
          "indexed": false,
          "internalType": "uint256",
          "name": "quant",
          "type": "uint256"
        },
        {
          "indexed": false,
          "internalType": "uint256",
          "name": "PHaccNum",
          "type": "uint256"
        }
      ],
      "name": "ShipDrugByWD",
      "type": "event"
    },
    {
      "anonymous": false,
      "inputs": [
        {
          "indexed": true,
          "internalType": "address",
          "name": "account",
          "type": "address"
        },
        {
          "indexed": false,
          "internalType": "uint256",
          "name": "accNum",
          "type": "uint256"
        }
      ],
      "name": "WDAdded",
      "type": "event"
    },
    {
      "anonymous": false,
      "inputs": [
        {
          "indexed": true,
          "internalType": "address",
          "name": "account",
          "type": "address"
        }
      ],
      "name": "WDRemoved",
      "type": "event"
    },
    {
      "inputs": [
        {
          "internalType": "uint256",
          "name": "dcCode",
          "type": "uint256"
        },
        {
          "internalType": "uint256",
          "name": "discountprice",
          "type": "uint256"
        },
        {
          "internalType": "uint256",
          "name": "drugID",
          "type": "uint256"
        },
        {
          "internalType": "uint256",
          "name": "INaccNum",
          "type": "uint256"
        }
      ],
      "name": "addDiscountInIN",
      "outputs": [],
      "stateMutability": "nonpayable",
      "type": "function"
    },
    {
      "inputs": [
        {
          "internalType": "string",
          "name": "name",
          "type": "string"
        },
        {
          "internalType": "uint256",
          "name": "price",
          "type": "uint256"
        }
      ],
      "name": "addDrug",
      "outputs": [],
      "stateMutability": "nonpayable",
      "type": "function"
    },
    {
      "inputs": [
        {
          "internalType": "uint256",
          "name": "dID",
          "type": "uint256"
        },
        {
          "internalType": "uint256",
          "name": "quant",
          "type": "uint256"
        }
      ],
      "name": "addDrugInPH",
      "outputs": [],
      "stateMutability": "nonpayable",
      "type": "function"
    },
    {
      "inputs": [
        {
          "internalType": "uint256",
          "name": "dID",
          "type": "uint256"
        },
        {
          "internalType": "uint256",
          "name": "quant",
          "type": "uint256"
        }
      ],
      "name": "addDrugInWD",
      "outputs": [],
      "stateMutability": "nonpayable",
      "type": "function"
    },
    {
      "inputs": [],
      "name": "addPHaccounts",
      "outputs": [],
      "stateMutability": "nonpayable",
      "type": "function"
    },
    {
      "inputs": [
        {
          "internalType": "address",
          "name": "account",
          "type": "address"
        }
      ],
      "name": "addThisAsIN",
      "outputs": [],
      "stateMutability": "nonpayable",
      "type": "function"
    },
    {
      "inputs": [
        {
          "internalType": "address",
          "name": "account",
          "type": "address"
        }
      ],
      "name": "addThisAsMA",
      "outputs": [],
      "stateMutability": "nonpayable",
      "type": "function"
    },
    {
      "inputs": [
        {
          "internalType": "address",
          "name": "account",
          "type": "address"
        }
      ],
      "name": "addThisAsPH",
      "outputs": [],
      "stateMutability": "nonpayable",
      "type": "function"
    },
    {
      "inputs": [
        {
          "internalType": "address",
          "name": "account",
          "type": "address"
        }
      ],
      "name": "addThisAsWD",
      "outputs": [],
      "stateMutability": "nonpayable",
      "type": "function"
    },
    {
      "inputs": [
        {
          "internalType": "uint256",
          "name": "reqID",
          "type": "uint256"
        },
        {
          "internalType": "uint256",
          "name": "quant",
          "type": "uint256"
        },
        {
          "internalType": "uint256",
          "name": "WDaccNum",
          "type": "uint256"
        }
      ],
      "name": "confirmDrugShipment",
      "outputs": [],
      "stateMutability": "nonpayable",
      "type": "function"
    },
    {
      "inputs": [
        {
          "internalType": "uint256",
          "name": "dID",
          "type": "uint256"
        }
      ],
      "name": "findDrugInPH",
      "outputs": [
        {
          "internalType": "uint256",
          "name": "",
          "type": "uint256"
        }
      ],
      "stateMutability": "view",
      "type": "function"
    },
    {
      "inputs": [
        {
          "internalType": "uint256",
          "name": "dID",
          "type": "uint256"
        }
      ],
      "name": "findDrugInWD",
      "outputs": [
        {
          "internalType": "uint256",
          "name": "",
          "type": "uint256"
        }
      ],
      "stateMutability": "view",
      "type": "function"
    },
    {
      "inputs": [
        {
          "internalType": "uint256",
          "name": "reqID",
          "type": "uint256"
        }
      ],
      "name": "findRequestInPH",
      "outputs": [
        {
          "internalType": "uint256",
          "name": "",
          "type": "uint256"
        }
      ],
      "stateMutability": "view",
      "type": "function"
    },
    {
      "inputs": [
        {
          "internalType": "uint256",
          "name": "reqID",
          "type": "uint256"
        }
      ],
      "name": "findRequestInWD",
      "outputs": [
        {
          "internalType": "uint256",
          "name": "",
          "type": "uint256"
        }
      ],
      "stateMutability": "view",
      "type": "function"
    },
    {
      "inputs": [
        {
          "internalType": "uint256",
          "name": "accNumber",
          "type": "uint256"
        }
      ],
      "name": "getINaddr",
      "outputs": [
        {
          "internalType": "address",
          "name": "",
          "type": "address"
        }
      ],
      "stateMutability": "view",
      "type": "function"
    },
    {
      "inputs": [
        {
          "internalType": "uint256",
          "name": "accNumber",
          "type": "uint256"
        }
      ],
      "name": "getMAaddr",
      "outputs": [
        {
          "internalType": "address",
          "name": "",
          "type": "address"
        }
      ],
      "stateMutability": "view",
      "type": "function"
    },
    {
      "inputs": [
        {
          "internalType": "uint256",
          "name": "accNumber",
          "type": "uint256"
        }
      ],
      "name": "getPHaddr",
      "outputs": [
        {
          "internalType": "address",
          "name": "",
          "type": "address"
        }
      ],
      "stateMutability": "view",
      "type": "function"
    },
    {
      "inputs": [
        {
          "internalType": "uint256",
          "name": "accNumber",
          "type": "uint256"
        }
      ],
      "name": "getWDaddr",
      "outputs": [
        {
          "internalType": "address",
          "name": "",
          "type": "address"
        }
      ],
      "stateMutability": "view",
      "type": "function"
    },
    {
      "inputs": [
        {
          "internalType": "address",
          "name": "account",
          "type": "address"
        }
      ],
      "name": "isIN",
      "outputs": [
        {
          "internalType": "bool",
          "name": "",
          "type": "bool"
        }
      ],
      "stateMutability": "view",
      "type": "function"
    },
    {
      "inputs": [
        {
          "internalType": "address",
          "name": "account",
          "type": "address"
        }
      ],
      "name": "isMA",
      "outputs": [
        {
          "internalType": "bool",
          "name": "",
          "type": "bool"
        }
      ],
      "stateMutability": "view",
      "type": "function"
    },
    {
      "inputs": [
        {
          "internalType": "address",
          "name": "account",
          "type": "address"
        }
      ],
      "name": "isPH",
      "outputs": [
        {
          "internalType": "bool",
          "name": "",
          "type": "bool"
        }
      ],
      "stateMutability": "view",
      "type": "function"
    },
    {
      "inputs": [
        {
          "internalType": "address",
          "name": "account",
          "type": "address"
        }
      ],
      "name": "isWD",
      "outputs": [
        {
          "internalType": "bool",
          "name": "",
          "type": "bool"
        }
      ],
      "stateMutability": "view",
      "type": "function"
    },
    {
      "inputs": [],
      "name": "retrieveInventoryPH",
      "outputs": [],
      "stateMutability": "view",
      "type": "function"
    },
    {
      "inputs": [],
      "name": "retrieveInventoryPHFront",
      "outputs": [
        {
          "components": [
            {
              "internalType": "uint256",
              "name": "id",
              "type": "uint256"
            },
            {
              "internalType": "string",
              "name": "name",
              "type": "string"
            },
            {
              "internalType": "uint256",
              "name": "price",
              "type": "uint256"
            },
            {
              "internalType": "uint256",
              "name": "quantity",
              "type": "uint256"
            },
            {
              "internalType": "address",
              "name": "currentOwner",
              "type": "address"
            },
            {
              "internalType": "address",
              "name": "manufacturer",
              "type": "address"
            },
            {
              "internalType": "address",
              "name": "wholesale",
              "type": "address"
            },
            {
              "internalType": "address",
              "name": "pharmacy",
              "type": "address"
            },
            {
              "internalType": "bool",
              "name": "isSoldOut",
              "type": "bool"
            }
          ],
          "internalType": "struct SupplyChain.Drug[]",
          "name": "",
          "type": "tuple[]"
        }
      ],
      "stateMutability": "view",
      "type": "function"
    },
    {
      "inputs": [],
      "name": "retrieveInventoryWD",
      "outputs": [],
      "stateMutability": "view",
      "type": "function"
    },
    {
      "inputs": [
        {
          "internalType": "uint256",
          "name": "drugID",
          "type": "uint256"
        },
        {
          "internalType": "uint256",
          "name": "quant",
          "type": "uint256"
        },
        {
          "internalType": "uint256",
          "name": "WDaccNum",
          "type": "uint256"
        },
        {
          "internalType": "uint256",
          "name": "dcCode",
          "type": "uint256"
        }
      ],
      "name": "sendDrugRequestPH",
      "outputs": [],
      "stateMutability": "payable",
      "type": "function"
    },
    {
      "inputs": [
        {
          "internalType": "uint256",
          "name": "drugID",
          "type": "uint256"
        },
        {
          "internalType": "uint256",
          "name": "quant",
          "type": "uint256"
        },
        {
          "internalType": "uint256",
          "name": "MAaccNum",
          "type": "uint256"
        }
      ],
      "name": "sendDrugRequestWD",
      "outputs": [],
      "stateMutability": "payable",
      "type": "function"
    },
    {
      "inputs": [
        {
          "internalType": "uint256",
          "name": "drugID",
          "type": "uint256"
        },
        {
          "internalType": "uint256",
          "name": "quant",
          "type": "uint256"
        },
        {
          "internalType": "uint256",
          "name": "PHaccNum",
          "type": "uint256"
        }
      ],
      "name": "shipDrugWD",
      "outputs": [],
      "stateMutability": "nonpayable",
      "type": "function"
    },
    {
      "inputs": [],
      "name": "showAllEntities",
      "outputs": [],
      "stateMutability": "view",
      "type": "function"
    },
    {
      "inputs": [],
      "name": "showAllIN",
      "outputs": [],
      "stateMutability": "view",
      "type": "function"
    },
    {
      "inputs": [],
      "name": "showAllMA",
      "outputs": [],
      "stateMutability": "view",
      "type": "function"
    },
    {
      "inputs": [],
      "name": "showAllPH",
      "outputs": [],
      "stateMutability": "view",
      "type": "function"
    },
    {
      "inputs": [],
      "name": "showAllWD",
      "outputs": [],
      "stateMutability": "view",
      "type": "function"
    }
  ],
  "bytecode": "0x608060405234801561001057600080fd5b506000600281905550600060038190555060006008819055506000600b8190555033600c60006101000a81548173ffffffffffffffffffffffffffffffffffffffff021916908373ffffffffffffffffffffffffffffffffffffffff160217905550600060158190555060006016819055506000601781905550614d20806100996000396000f3fe6080604052600436106101ed5760003560e01c80635f3896891161010d578063b2cc08f8116100a0578063bd80bcd81161006f578063bd80bcd8146106d5578063cacce190146106f1578063cfb8f1661461071a578063f41da42014610743578063faae3cc21461076c576101ed565b8063b2cc08f81461061b578063b8d41a0914610658578063b959482a1461066f578063bcb4d79714610698576101ed565b80636a8407fc116100dc5780636a8407fc14610561578063705258801461059e57806372718467146105c75780638056b4b4146105f2576101ed565b80635f389689146104a7578063603a3191146104e4578063674a53f9146104fb578063698adc8314610538576101ed565b80632e11b8561161018557806341720a9c1161015457806341720a9c146103ff57806342dc56a214610416578063432f20a61461042d57806345b77e9c1461046a576101ed565b80632e11b8561461032c578063340666521461036957806334b44b9b146103a6578063405c1486146103c2576101ed565b80632127efa0116101c15780632127efa01461029a57806325111bce146102c35780632903afae146102ec5780632d10b18114610315576101ed565b8062e95cc8146101f25780630555e38714610209578063067ed25714610246578063206e348814610283575b600080fd5b3480156101fe57600080fd5b50610207610783565b005b34801561021557600080fd5b50610230600480360381019061022b9190613cd3565b610846565b60405161023d9190613d1b565b60405180910390f35b34801561025257600080fd5b5061026d60048036038101906102689190613cd3565b610863565b60405161027a9190613d1b565b60405180910390f35b34801561028f57600080fd5b50610298610880565b005b3480156102a657600080fd5b506102c160048036038101906102bc9190613d6c565b610937565b005b3480156102cf57600080fd5b506102ea60048036038101906102e59190613dbf565b610b37565b005b3480156102f857600080fd5b50610313600480360381019061030e9190613cd3565b610fc0565b005b34801561032157600080fd5b5061032a610fff565b005b34801561033857600080fd5b50610353600480360381019061034e9190613cd3565b6113a2565b6040516103609190613d1b565b60405180910390f35b34801561037557600080fd5b50610390600480360381019061038b9190613dff565b6113bf565b60405161039d9190613e3b565b60405180910390f35b6103c060048036038101906103bb9190613e56565b6114e5565b005b3480156103ce57600080fd5b506103e960048036038101906103e49190613dff565b6119d3565b6040516103f69190613e3b565b60405180910390f35b34801561040b57600080fd5b50610414611af9565b005b34801561042257600080fd5b5061042b611bbc565b005b34801561043957600080fd5b50610454600480360381019061044f9190613dff565b611f5f565b6040516104619190613ecc565b60405180910390f35b34801561047657600080fd5b50610491600480360381019061048c9190613dff565b611f7c565b60405161049e9190613e3b565b60405180910390f35b3480156104b357600080fd5b506104ce60048036038101906104c99190613dff565b6120ae565b6040516104db9190613ecc565b60405180910390f35b3480156104f057600080fd5b506104f96120cb565b005b34801561050757600080fd5b50610522600480360381019061051d9190613dff565b61218e565b60405161052f9190613ecc565b60405180910390f35b34801561054457600080fd5b5061055f600480360381019061055a9190613cd3565b6121ab565b005b34801561056d57600080fd5b5061058860048036038101906105839190613cd3565b6121ea565b6040516105959190613d1b565b60405180910390f35b3480156105aa57600080fd5b506105c560048036038101906105c0919061402d565b612207565b005b3480156105d357600080fd5b506105dc61248e565b6040516105e991906142bc565b60405180910390f35b3480156105fe57600080fd5b5061061960048036038101906106149190613cd3565b612796565b005b34801561062757600080fd5b50610642600480360381019061063d9190613dff565b6127c9565b60405161064f9190613ecc565b60405180910390f35b34801561066457600080fd5b5061066d6127e6565b005b34801561067b57600080fd5b5061069660048036038101906106919190613cd3565b612808565b005b3480156106a457600080fd5b506106bf60048036038101906106ba9190613dff565b612847565b6040516106cc9190613e3b565b60405180910390f35b6106ef60048036038101906106ea9190613d6c565b612930565b005b3480156106fd57600080fd5b5061071860048036038101906107139190613dbf565b612df1565b005b34801561072657600080fd5b50610741600480360381019061073c9190613d6c565b61327a565b005b34801561074f57600080fd5b5061076a60048036038101906107659190613e56565b6135a6565b005b34801561077857600080fd5b506107816136ff565b005b6000805b6008548110156108425760016005826107a0919061430d565b6107aa919061434f565b91506108356040518060400160405280600f81526020017f57686f6c6573616c652061636323200000000000000000000000000000000000815250826040518060400160405280600281526020017f3a2000000000000000000000000000000000000000000000000000000000000081525061083086600661377590919063ffffffff16565b6137b5565b8080600101915050610787565b5050565b600061085c82600461385790919063ffffffff16565b9050919050565b600061087982600061385790919063ffffffff16565b9050919050565b6000805b6002548110156109335760058161089b919061430d565b91506109266040518060400160405280600e81526020017f506861726d616379206163632320000000000000000000000000000000000000815250826040518060400160405280600281526020017f3a2000000000000000000000000000000000000000000000000000000000000081525061092186600061377590919063ffffffff16565b6137b5565b8080600101915050610884565b5050565b61094033610863565b61097f576040517f08c379a0000000000000000000000000000000000000000000000000000000008152600401610976906143e0565b60405180910390fd5b600061098a84611f7c565b90506001600e60003373ffffffffffffffffffffffffffffffffffffffff1673ffffffffffffffffffffffffffffffffffffffff16815260200190815260200160002082815481106109df576109de614400565b5b906000526020600020906006020160050160146101000a81548160ff0219169083151502179055506000600e60003373ffffffffffffffffffffffffffffffffffffffff1673ffffffffffffffffffffffffffffffffffffffff1681526020019081526020016000208281548110610a5a57610a59614400565b5b906000526020600020906006020160010154905083601260003373ffffffffffffffffffffffffffffffffffffffff1673ffffffffffffffffffffffffffffffffffffffff1681526020019081526020016000208281548110610ac057610abf614400565b5b90600052602060002090600802016003016000828254610ae0919061434f565b925050819055506000610af2846127c9565b90507fb76c4f40d064c72d18b0ddeaba1d885b054f208ac1984f07c3a2c3ddda8ba6a8863383604051610b279392919061442f565b60405180910390a1505050505050565b610b4033610863565b610b7f576040517f08c379a0000000000000000000000000000000000000000000000000000000008152600401610b76906143e0565b60405180910390fd5b6000610b8a836119d3565b9050601260003373ffffffffffffffffffffffffffffffffffffffff1673ffffffffffffffffffffffffffffffffffffffff168152602001908152602001600020805490508103610f0657601260003373ffffffffffffffffffffffffffffffffffffffff1673ffffffffffffffffffffffffffffffffffffffff168152602001908152602001600020604051806101200160405280858152602001600d60008781526020019081526020016000206001018054610c4790614495565b80601f0160208091040260200160405190810160405280929190818152602001828054610c7390614495565b8015610cc05780601f10610c9557610100808354040283529160200191610cc0565b820191906000526020600020905b815481529060010190602001808311610ca357829003601f168201915b50505050508152602001600d60008781526020019081526020016000206002015481526020018481526020013373ffffffffffffffffffffffffffffffffffffffff168152602001600073ffffffffffffffffffffffffffffffffffffffff168152602001600073ffffffffffffffffffffffffffffffffffffffff1681526020013373ffffffffffffffffffffffffffffffffffffffff168152602001600015158152509080600181540180825580915050600190039060005260206000209060080201600090919091909150600082015181600001556020820151816001019081610dad9190614672565b50604082015181600201556060820151816003015560808201518160040160006101000a81548173ffffffffffffffffffffffffffffffffffffffff021916908373ffffffffffffffffffffffffffffffffffffffff16021790555060a08201518160050160006101000a81548173ffffffffffffffffffffffffffffffffffffffff021916908373ffffffffffffffffffffffffffffffffffffffff16021790555060c08201518160060160006101000a81548173ffffffffffffffffffffffffffffffffffffffff021916908373ffffffffffffffffffffffffffffffffffffffff16021790555060e08201518160070160006101000a81548173ffffffffffffffffffffffffffffffffffffffff021916908373ffffffffffffffffffffffffffffffffffffffff1602179055506101008201518160070160146101000a81548160ff0219169083151502179055505050610f80565b81601260003373ffffffffffffffffffffffffffffffffffffffff1673ffffffffffffffffffffffffffffffffffffffff1681526020019081526020016000208281548110610f5857610f57614400565b5b90600052602060002090600802016003016000828254610f78919061434f565b925050819055505b7f01fd8585134bd20524c063b363e68b00637654b3b8f14c0d45f8bb068faf3b34838333604051610fb393929190614744565b60405180910390a1505050565b610fe48160036005600354610fd5919061430d565b610fdf919061434f565b6138e8565b60036000815480929190610ff79061477b565b919050555050565b611008336113a2565b611047576040517f08c379a000000000000000000000000000000000000000000000000000000000815260040161103e9061480f565b60405180910390fd5b600080601360003373ffffffffffffffffffffffffffffffffffffffff1673ffffffffffffffffffffffffffffffffffffffff168152602001908152602001600020805480602002602001604051908101604052809291908181526020016000905b828210156112ff578382906000526020600020906008020160405180610120016040529081600082015481526020016001820180546110e790614495565b80601f016020809104026020016040519081016040528092919081815260200182805461111390614495565b80156111605780601f1061113557610100808354040283529160200191611160565b820191906000526020600020905b81548152906001019060200180831161114357829003601f168201915b5050505050815260200160028201548152602001600382015481526020016004820160009054906101000a900473ffffffffffffffffffffffffffffffffffffffff1673ffffffffffffffffffffffffffffffffffffffff1673ffffffffffffffffffffffffffffffffffffffff1681526020016005820160009054906101000a900473ffffffffffffffffffffffffffffffffffffffff1673ffffffffffffffffffffffffffffffffffffffff1673ffffffffffffffffffffffffffffffffffffffff1681526020016006820160009054906101000a900473ffffffffffffffffffffffffffffffffffffffff1673ffffffffffffffffffffffffffffffffffffffff1673ffffffffffffffffffffffffffffffffffffffff1681526020016007820160009054906101000a900473ffffffffffffffffffffffffffffffffffffffff1673ffffffffffffffffffffffffffffffffffffffff1673ffffffffffffffffffffffffffffffffffffffff1681526020016007820160149054906101000a900460ff161515151581525050815260200190600101906110a9565b5050505090505b805182101561139e5761138b81838151811061132557611324614400565b5b6020026020010151600001516040518060400160405280600a81526020017f3a207175616e74202d200000000000000000000000000000000000000000000081525083858151811061137a57611379614400565b5b602002602001015160600151613945565b81806113969061477b565b925050611306565b5050565b60006113b882600661385790919063ffffffff16565b9050919050565b60006113ca336113a2565b611409576040517f08c379a00000000000000000000000000000000000000000000000000000000081526004016114009061480f565b60405180910390fd5b6000601360003373ffffffffffffffffffffffffffffffffffffffff1673ffffffffffffffffffffffffffffffffffffffff168152602001908152602001600020805490509050600081905060005b828110156114da5784601360003373ffffffffffffffffffffffffffffffffffffffff1673ffffffffffffffffffffffffffffffffffffffff16815260200190815260200160002082815481106114b2576114b1614400565b5b906000526020600020906008020160000154036114cd578091505b8080600101915050611458565b508092505050919050565b6114ee33610863565b61152d576040517f08c379a0000000000000000000000000000000000000000000000000000000008152600401611524906143e0565b60405180910390fd5b6000836011600084815260200190815260200160002060030154600d600088815260200190815260200160002060020154611568919061482f565b611572919061430d565b9050600061157f846127c9565b9050348211156115c4576040517f08c379a00000000000000000000000000000000000000000000000000000000081526004016115bb906148af565b60405180910390fd5b60006103e8426115d491906148fe565b8585888a6115e2919061434f565b6115ec919061434f565b6115f6919061434f565b611600919061434f565b9050600e60003373ffffffffffffffffffffffffffffffffffffffff1673ffffffffffffffffffffffffffffffffffffffff1681526020019081526020016000206040518060e001604052808381526020018981526020018881526020018581526020013373ffffffffffffffffffffffffffffffffffffffff1681526020018473ffffffffffffffffffffffffffffffffffffffff1681526020016000151581525090806001815401808255809150506001900390600052602060002090600602016000909190919091506000820151816000015560208201518160010155604082015181600201556060820151816003015560808201518160040160006101000a81548173ffffffffffffffffffffffffffffffffffffffff021916908373ffffffffffffffffffffffffffffffffffffffff16021790555060a08201518160050160006101000a81548173ffffffffffffffffffffffffffffffffffffffff021916908373ffffffffffffffffffffffffffffffffffffffff16021790555060c08201518160050160146101000a81548160ff0219169083151502179055505050600f60008373ffffffffffffffffffffffffffffffffffffffff1673ffffffffffffffffffffffffffffffffffffffff1681526020019081526020016000206040518060e001604052808381526020018981526020018881526020018581526020013373ffffffffffffffffffffffffffffffffffffffff1681526020018473ffffffffffffffffffffffffffffffffffffffff1681526020016000151581525090806001815401808255809150506001900390600052602060002090600602016000909190919091506000820151816000015560208201518160010155604082015181600201556060820151816003015560808201518160040160006101000a81548173ffffffffffffffffffffffffffffffffffffffff021916908373ffffffffffffffffffffffffffffffffffffffff16021790555060a08201518160050160006101000a81548173ffffffffffffffffffffffffffffffffffffffff021916908373ffffffffffffffffffffffffffffffffffffffff16021790555060c08201518160050160146101000a81548160ff02191690831515021790555050508173ffffffffffffffffffffffffffffffffffffffff166108fc849081150290604051600060405180830381858888f1935050505015801561198c573d6000803e3d6000fd5b507f64535bd33b640ec7d8a9dcfc8de975843151d9065abdcb0a65b8f4c81f2108c3878785856040516119c29493929190614984565b60405180910390a150505050505050565b60006119de33610863565b611a1d576040517f08c379a0000000000000000000000000000000000000000000000000000000008152600401611a14906143e0565b60405180910390fd5b6000601260003373ffffffffffffffffffffffffffffffffffffffff1673ffffffffffffffffffffffffffffffffffffffff168152602001908152602001600020805490509050600081905060005b82811015611aee5784601260003373ffffffffffffffffffffffffffffffffffffffff1673ffffffffffffffffffffffffffffffffffffffff1681526020019081526020016000208281548110611ac657611ac5614400565b5b90600052602060002090600802016000015403611ae1578091505b8080600101915050611a6c565b508092505050919050565b6000805b600354811015611bb8576003600582611b16919061430d565b611b20919061434f565b9150611bab6040518060400160405280601281526020017f4d616e7566616374757265722061636323200000000000000000000000000000815250826040518060400160405280600281526020017f3a20000000000000000000000000000000000000000000000000000000000000815250611ba686600461377590919063ffffffff16565b6137b5565b8080600101915050611afd565b5050565b611bc533610863565b611c04576040517f08c379a0000000000000000000000000000000000000000000000000000000008152600401611bfb906143e0565b60405180910390fd5b600080601260003373ffffffffffffffffffffffffffffffffffffffff1673ffffffffffffffffffffffffffffffffffffffff168152602001908152602001600020805480602002602001604051908101604052809291908181526020016000905b82821015611ebc57838290600052602060002090600802016040518061012001604052908160008201548152602001600182018054611ca490614495565b80601f0160208091040260200160405190810160405280929190818152602001828054611cd090614495565b8015611d1d5780601f10611cf257610100808354040283529160200191611d1d565b820191906000526020600020905b815481529060010190602001808311611d0057829003601f168201915b5050505050815260200160028201548152602001600382015481526020016004820160009054906101000a900473ffffffffffffffffffffffffffffffffffffffff1673ffffffffffffffffffffffffffffffffffffffff1673ffffffffffffffffffffffffffffffffffffffff1681526020016005820160009054906101000a900473ffffffffffffffffffffffffffffffffffffffff1673ffffffffffffffffffffffffffffffffffffffff1673ffffffffffffffffffffffffffffffffffffffff1681526020016006820160009054906101000a900473ffffffffffffffffffffffffffffffffffffffff1673ffffffffffffffffffffffffffffffffffffffff1673ffffffffffffffffffffffffffffffffffffffff1681526020016007820160009054906101000a900473ffffffffffffffffffffffffffffffffffffffff1673ffffffffffffffffffffffffffffffffffffffff1673ffffffffffffffffffffffffffffffffffffffff1681526020016007820160149054906101000a900460ff16151515158152505081526020019060010190611c66565b5050505090505b8051821015611f5b57611f48818381518110611ee257611ee1614400565b5b6020026020010151600001516040518060400160405280600a81526020017f3a207175616e74202d2000000000000000000000000000000000000000000000815250838581518110611f3757611f36614400565b5b602002602001015160600151613945565b8180611f539061477b565b925050611ec3565b5050565b6000611f7582600061377590919063ffffffff16565b9050919050565b6000611f8733610863565b611fc6576040517f08c379a0000000000000000000000000000000000000000000000000000000008152600401611fbd906143e0565b60405180910390fd5b6000600e60003373ffffffffffffffffffffffffffffffffffffffff1673ffffffffffffffffffffffffffffffffffffffff168152602001908152602001600020805490509050600060018261201c919061482f565b905060005b828110156120a35784600e60003373ffffffffffffffffffffffffffffffffffffffff1673ffffffffffffffffffffffffffffffffffffffff168152602001908152602001600020828154811061207b5761207a614400565b5b90600052602060002090600602016000015403612096578091505b8080600101915050612021565b508092505050919050565b60006120c482600461377590919063ffffffff16565b9050919050565b6000805b600b5481101561218a5760026005826120e8919061430d565b6120f2919061434f565b915061217d6040518060400160405280600d81526020017f496e737572657220616363232000000000000000000000000000000000000000815250826040518060400160405280600281526020017f3a2000000000000000000000000000000000000000000000000000000000000081525061217886600961377590919063ffffffff16565b6137b5565b80806001019150506120cf565b5050565b60006121a482600961377590919063ffffffff16565b9050919050565b6121cf8160026005600b546121c0919061430d565b6121ca919061434f565b6139e4565b600b60008154809291906121e29061477b565b919050555050565b600061220082600961385790919063ffffffff16565b9050919050565b6000601554905060405180610120016040528082815260200184815260200183815260200160008152602001600073ffffffffffffffffffffffffffffffffffffffff168152602001600073ffffffffffffffffffffffffffffffffffffffff168152602001600073ffffffffffffffffffffffffffffffffffffffff168152602001600073ffffffffffffffffffffffffffffffffffffffff16815260200160001515815250600d6000601560008154809291906122c59061477b565b9190505581526020019081526020016000206000820151816000015560208201518160010190816122f69190614672565b50604082015181600201556060820151816003015560808201518160040160006101000a81548173ffffffffffffffffffffffffffffffffffffffff021916908373ffffffffffffffffffffffffffffffffffffffff16021790555060a08201518160050160006101000a81548173ffffffffffffffffffffffffffffffffffffffff021916908373ffffffffffffffffffffffffffffffffffffffff16021790555060c08201518160060160006101000a81548173ffffffffffffffffffffffffffffffffffffffff021916908373ffffffffffffffffffffffffffffffffffffffff16021790555060e08201518160070160006101000a81548173ffffffffffffffffffffffffffffffffffffffff021916908373ffffffffffffffffffffffffffffffffffffffff1602179055506101008201518160070160146101000a81548160ff0219169083151502179055509050507f5b5755b262b850b85821421089fb7b9f0989af8fbdbb918ac09d7dd30087d21281846000856040516124819493929190614a3d565b60405180910390a1505050565b606061249933610863565b6124d8576040517f08c379a00000000000000000000000000000000000000000000000000000000081526004016124cf906143e0565b60405180910390fd5b601260003373ffffffffffffffffffffffffffffffffffffffff1673ffffffffffffffffffffffffffffffffffffffff168152602001908152602001600020805480602002602001604051908101604052809291908181526020016000905b8282101561278d5783829060005260206000209060080201604051806101200160405290816000820154815260200160018201805461257590614495565b80601f01602080910402602001604051908101604052809291908181526020018280546125a190614495565b80156125ee5780601f106125c3576101008083540402835291602001916125ee565b820191906000526020600020905b8154815290600101906020018083116125d157829003601f168201915b5050505050815260200160028201548152602001600382015481526020016004820160009054906101000a900473ffffffffffffffffffffffffffffffffffffffff1673ffffffffffffffffffffffffffffffffffffffff1673ffffffffffffffffffffffffffffffffffffffff1681526020016005820160009054906101000a900473ffffffffffffffffffffffffffffffffffffffff1673ffffffffffffffffffffffffffffffffffffffff1673ffffffffffffffffffffffffffffffffffffffff1681526020016006820160009054906101000a900473ffffffffffffffffffffffffffffffffffffffff1673ffffffffffffffffffffffffffffffffffffffff1673ffffffffffffffffffffffffffffffffffffffff1681526020016007820160009054906101000a900473ffffffffffffffffffffffffffffffffffffffff1673ffffffffffffffffffffffffffffffffffffffff1673ffffffffffffffffffffffffffffffffffffffff1681526020016007820160149054906101000a900460ff16151515158152505081526020019060010190612537565b50505050905090565b6127ae8160056002546127a9919061430d565b613a41565b600260008154809291906127c19061477b565b919050555050565b60006127df82600661377590919063ffffffff16565b9050919050565b6127ee610880565b6127f6610783565b6127fe611af9565b6128066120cb565b565b61282c816001600560085461281d919061430d565b612827919061434f565b613aa9565b6008600081548092919061283f9061477b565b919050555050565b600080600f60003373ffffffffffffffffffffffffffffffffffffffff1673ffffffffffffffffffffffffffffffffffffffff168152602001908152602001600020805490509050600060018261289e919061482f565b905060005b828110156129255784600f60003373ffffffffffffffffffffffffffffffffffffffff1673ffffffffffffffffffffffffffffffffffffffff16815260200190815260200160002082815481106128fd576128fc614400565b5b90600052602060002090600602016000015403612918578091505b80806001019150506128a3565b508092505050919050565b612939336113a2565b612978576040517f08c379a000000000000000000000000000000000000000000000000000000000815260040161296f9061480f565b60405180910390fd5b600082600d60008681526020019081526020016000206002015461299c919061430d565b905060006129a9836120ae565b9050348211156129ee576040517f08c379a00000000000000000000000000000000000000000000000000000000081526004016129e5906148af565b60405180910390fd5b60006103e8426129fe91906148fe565b848688612a0b919061434f565b612a15919061434f565b612a1f919061434f565b9050600e60003373ffffffffffffffffffffffffffffffffffffffff1673ffffffffffffffffffffffffffffffffffffffff1681526020019081526020016000206040518060e001604052808381526020018881526020018781526020018581526020013373ffffffffffffffffffffffffffffffffffffffff1681526020018473ffffffffffffffffffffffffffffffffffffffff1681526020016000151581525090806001815401808255809150506001900390600052602060002090600602016000909190919091506000820151816000015560208201518160010155604082015181600201556060820151816003015560808201518160040160006101000a81548173ffffffffffffffffffffffffffffffffffffffff021916908373ffffffffffffffffffffffffffffffffffffffff16021790555060a08201518160050160006101000a81548173ffffffffffffffffffffffffffffffffffffffff021916908373ffffffffffffffffffffffffffffffffffffffff16021790555060c08201518160050160146101000a81548160ff0219169083151502179055505050601060008373ffffffffffffffffffffffffffffffffffffffff1673ffffffffffffffffffffffffffffffffffffffff1681526020019081526020016000206040518060e001604052808381526020018881526020018781526020018581526020013373ffffffffffffffffffffffffffffffffffffffff1681526020018473ffffffffffffffffffffffffffffffffffffffff1681526020016000151581525090806001815401808255809150506001900390600052602060002090600602016000909190919091506000820151816000015560208201518160010155604082015181600201556060820151816003015560808201518160040160006101000a81548173ffffffffffffffffffffffffffffffffffffffff021916908373ffffffffffffffffffffffffffffffffffffffff16021790555060a08201518160050160006101000a81548173ffffffffffffffffffffffffffffffffffffffff021916908373ffffffffffffffffffffffffffffffffffffffff16021790555060c08201518160050160146101000a81548160ff02191690831515021790555050508173ffffffffffffffffffffffffffffffffffffffff166108fc849081150290604051600060405180830381858888f19350505050158015612dab573d6000803e3d6000fd5b507f64535bd33b640ec7d8a9dcfc8de975843151d9065abdcb0a65b8f4c81f2108c386868585604051612de19493929190614984565b60405180910390a1505050505050565b612dfa336113a2565b612e39576040517f08c379a0000000000000000000000000000000000000000000000000000000008152600401612e309061480f565b60405180910390fd5b6000612e44836113bf565b9050601360003373ffffffffffffffffffffffffffffffffffffffff1673ffffffffffffffffffffffffffffffffffffffff1681526020019081526020016000208054905081036131c057601360003373ffffffffffffffffffffffffffffffffffffffff1673ffffffffffffffffffffffffffffffffffffffff168152602001908152602001600020604051806101200160405280858152602001600d60008781526020019081526020016000206001018054612f0190614495565b80601f0160208091040260200160405190810160405280929190818152602001828054612f2d90614495565b8015612f7a5780601f10612f4f57610100808354040283529160200191612f7a565b820191906000526020600020905b815481529060010190602001808311612f5d57829003601f168201915b50505050508152602001600d60008781526020019081526020016000206002015481526020018481526020013373ffffffffffffffffffffffffffffffffffffffff168152602001600073ffffffffffffffffffffffffffffffffffffffff168152602001600073ffffffffffffffffffffffffffffffffffffffff1681526020013373ffffffffffffffffffffffffffffffffffffffff1681526020016000151581525090806001815401808255809150506001900390600052602060002090600802016000909190919091506000820151816000015560208201518160010190816130679190614672565b50604082015181600201556060820151816003015560808201518160040160006101000a81548173ffffffffffffffffffffffffffffffffffffffff021916908373ffffffffffffffffffffffffffffffffffffffff16021790555060a08201518160050160006101000a81548173ffffffffffffffffffffffffffffffffffffffff021916908373ffffffffffffffffffffffffffffffffffffffff16021790555060c08201518160060160006101000a81548173ffffffffffffffffffffffffffffffffffffffff021916908373ffffffffffffffffffffffffffffffffffffffff16021790555060e08201518160070160006101000a81548173ffffffffffffffffffffffffffffffffffffffff021916908373ffffffffffffffffffffffffffffffffffffffff1602179055506101008201518160070160146101000a81548160ff021916908315150217905550505061323a565b81601360003373ffffffffffffffffffffffffffffffffffffffff1673ffffffffffffffffffffffffffffffffffffffff168152602001908152602001600020828154811061321257613211614400565b5b90600052602060002090600802016003016000828254613232919061434f565b925050819055505b7faa0ccf70c1ed5f098a1e53c6f9e75b32cb44b86100ea455244060e153b36f05183833360405161326d93929190614744565b60405180910390a1505050565b613283336113a2565b6132c2576040517f08c379a00000000000000000000000000000000000000000000000000000000081526004016132b99061480f565b60405180910390fd5b60006132cd82611f5f565b905060006132da856113bf565b9050601360003373ffffffffffffffffffffffffffffffffffffffff1673ffffffffffffffffffffffffffffffffffffffff168152602001908152602001600020805490508103613360576040517f08c379a000000000000000000000000000000000000000000000000000000000815260040161335790614ad5565b60405180910390fd5b83601360003373ffffffffffffffffffffffffffffffffffffffff1673ffffffffffffffffffffffffffffffffffffffff16815260200190815260200160002082815481106133b2576133b1614400565b5b9060005260206000209060080201600301541015613405576040517f08c379a00000000000000000000000000000000000000000000000000000000081526004016133fc90614b67565b60405180910390fd5b83601360003373ffffffffffffffffffffffffffffffffffffffff1673ffffffffffffffffffffffffffffffffffffffff168152602001908152602001600020828154811061345757613456614400565b5b90600052602060002090600802016003016000828254613477919061482f565b925050819055506000601360003373ffffffffffffffffffffffffffffffffffffffff1673ffffffffffffffffffffffffffffffffffffffff16815260200190815260200160002082815481106134d1576134d0614400565b5b90600052602060002090600802016003015403613564576001601360003373ffffffffffffffffffffffffffffffffffffffff1673ffffffffffffffffffffffffffffffffffffffff168152602001908152602001600020868154811061353b5761353a614400565b5b906000526020600020906008020160070160146101000a81548160ff0219169083151502179055505b7f82317ff27a004ab91258681d816359383c4c8c836c1086730b653b11f9d584b185858560405161359793929190614b87565b60405180910390a15050505050565b6135af336121ea565b6135ee576040517f08c379a00000000000000000000000000000000000000000000000000000000081526004016135e590614c0a565b60405180910390fd5b60006135f98261218e565b90506040518060a001604052808681526020018273ffffffffffffffffffffffffffffffffffffffff16815260200184815260200185815260200142815250601160008781526020019081526020016000206000820151816000015560208201518160010160006101000a81548173ffffffffffffffffffffffffffffffffffffffff021916908373ffffffffffffffffffffffffffffffffffffffff1602179055506040820151816002015560608201518160030155608082015181600401559050507ff46e3888ab01efac692e1fd05a80154671dd88da2bd40bd258466857b2c8c3d48584336040516136f093929190614744565b60405180910390a15050505050565b61371c73f39fd6e51aad88f6f4ce6ab8827279cfffb92266612796565b6137397370997970c51812dc3a010c7d01b50e0d17dc79c8612808565b613756733c44cdddb6a900fa2b585dd299e03d12fa4293bc6121ab565b6137737390f79bf6eb2c4f870365e785982e1f101e93b906610fc0565b565b600082600001600083815260200190815260200160002060009054906101000a900473ffffffffffffffffffffffffffffffffffffffff16905092915050565b613851848484846040516024016137cf9493929190614c2a565b6040516020818303038152906040527f7c4632a4000000000000000000000000000000000000000000000000000000007bffffffffffffffffffffffffffffffffffffffffffffffffffffffff19166020820180517bffffffffffffffffffffffffffffffffffffffffffffffffffffffff8381831617835250505050613b11565b50505050565b60008073ffffffffffffffffffffffffffffffffffffffff168273ffffffffffffffffffffffffffffffffffffffff160361389157600080fd5b8260010160008373ffffffffffffffffffffffffffffffffffffffff1673ffffffffffffffffffffffffffffffffffffffff16815260200190815260200160002060009054906101000a900460ff16905092915050565b6138fe82826004613b2b9092919063ffffffff16565b8173ffffffffffffffffffffffffffffffffffffffff167f1b75342144357c1041167b44af1fb2fb1922a55e78798a1d0bffae81ae56952260405160405180910390a25050565b6139df83838360405160240161395d93929190614c7d565b6040516020818303038152906040527f37aa7d4c000000000000000000000000000000000000000000000000000000007bffffffffffffffffffffffffffffffffffffffffffffffffffffffff19166020820180517bffffffffffffffffffffffffffffffffffffffffffffffffffffffff8381831617835250505050613b11565b505050565b6139fa82826009613b2b9092919063ffffffff16565b8173ffffffffffffffffffffffffffffffffffffffff167fd9ca880bfd1de8a3f1e9b43db37e2f153997e67347efe3c29ee2938ecf53568160405160405180910390a25050565b613a5782826000613b2b9092919063ffffffff16565b8173ffffffffffffffffffffffffffffffffffffffff167f208939ccf3c0b1e4d56ede20000b38c0154e92a4137f57f8f75c6568488c4a3a82604051613a9d9190613e3b565b60405180910390a25050565b613abf82826006613b2b9092919063ffffffff16565b8173ffffffffffffffffffffffffffffffffffffffff167fa979e61f070c3dcad6f4ad6e371f80e4647f338cf5e8bb3c517ec5cd52d90e8282604051613b059190613e3b565b60405180910390a25050565b613b2881613b20613c2b613c4c565b63ffffffff16565b50565b600073ffffffffffffffffffffffffffffffffffffffff168273ffffffffffffffffffffffffffffffffffffffff1603613b6457600080fd5b613b6e8383613857565b15613b7857600080fd5b8183600001600083815260200190815260200160002060006101000a81548173ffffffffffffffffffffffffffffffffffffffff021916908373ffffffffffffffffffffffffffffffffffffffff16021790555060018360010160008473ffffffffffffffffffffffffffffffffffffffff1673ffffffffffffffffffffffffffffffffffffffff16815260200190815260200160002060006101000a81548160ff021916908315150217905550505050565b60006a636f6e736f6c652e6c6f679050600080835160208501845afa505050565b613c57819050919050565b613c5f614cbb565b565b6000604051905090565b600080fd5b600080fd5b600073ffffffffffffffffffffffffffffffffffffffff82169050919050565b6000613ca082613c75565b9050919050565b613cb081613c95565b8114613cbb57600080fd5b50565b600081359050613ccd81613ca7565b92915050565b600060208284031215613ce957613ce8613c6b565b5b6000613cf784828501613cbe565b91505092915050565b60008115159050919050565b613d1581613d00565b82525050565b6000602082019050613d306000830184613d0c565b92915050565b6000819050919050565b613d4981613d36565b8114613d5457600080fd5b50565b600081359050613d6681613d40565b92915050565b600080600060608486031215613d8557613d84613c6b565b5b6000613d9386828701613d57565b9350506020613da486828701613d57565b9250506040613db586828701613d57565b9150509250925092565b60008060408385031215613dd657613dd5613c6b565b5b6000613de485828601613d57565b9250506020613df585828601613d57565b9150509250929050565b600060208284031215613e1557613e14613c6b565b5b6000613e2384828501613d57565b91505092915050565b613e3581613d36565b82525050565b6000602082019050613e506000830184613e2c565b92915050565b60008060008060808587031215613e7057613e6f613c6b565b5b6000613e7e87828801613d57565b9450506020613e8f87828801613d57565b9350506040613ea087828801613d57565b9250506060613eb187828801613d57565b91505092959194509250565b613ec681613c95565b82525050565b6000602082019050613ee16000830184613ebd565b92915050565b600080fd5b600080fd5b6000601f19601f8301169050919050565b7f4e487b7100000000000000000000000000000000000000000000000000000000600052604160045260246000fd5b613f3a82613ef1565b810181811067ffffffffffffffff82111715613f5957613f58613f02565b5b80604052505050565b6000613f6c613c61565b9050613f788282613f31565b919050565b600067ffffffffffffffff821115613f9857613f97613f02565b5b613fa182613ef1565b9050602081019050919050565b82818337600083830152505050565b6000613fd0613fcb84613f7d565b613f62565b905082815260208101848484011115613fec57613feb613eec565b5b613ff7848285613fae565b509392505050565b600082601f83011261401457614013613ee7565b5b8135614024848260208601613fbd565b91505092915050565b6000806040838503121561404457614043613c6b565b5b600083013567ffffffffffffffff81111561406257614061613c70565b5b61406e85828601613fff565b925050602061407f85828601613d57565b9150509250929050565b600081519050919050565b600082825260208201905092915050565b6000819050602082019050919050565b6140be81613d36565b82525050565b600081519050919050565b600082825260208201905092915050565b60005b838110156140fe5780820151818401526020810190506140e3565b60008484015250505050565b6000614115826140c4565b61411f81856140cf565b935061412f8185602086016140e0565b61413881613ef1565b840191505092915050565b61414c81613c95565b82525050565b61415b81613d00565b82525050565b60006101208301600083015161417a60008601826140b5565b5060208301518482036020860152614192828261410a565b91505060408301516141a760408601826140b5565b5060608301516141ba60608601826140b5565b5060808301516141cd6080860182614143565b5060a08301516141e060a0860182614143565b5060c08301516141f360c0860182614143565b5060e083015161420660e0860182614143565b5061010083015161421b610100860182614152565b508091505092915050565b60006142328383614161565b905092915050565b6000602082019050919050565b600061425282614089565b61425c8185614094565b93508360208202850161426e856140a5565b8060005b858110156142aa578484038952815161428b8582614226565b94506142968361423a565b925060208a01995050600181019050614272565b50829750879550505050505092915050565b600060208201905081810360008301526142d68184614247565b905092915050565b7f4e487b7100000000000000000000000000000000000000000000000000000000600052601160045260246000fd5b600061431882613d36565b915061432383613d36565b925082820261433181613d36565b91508282048414831517614348576143476142de565b5b5092915050565b600061435a82613d36565b915061436583613d36565b925082820190508082111561437d5761437c6142de565b5b92915050565b600082825260208201905092915050565b7f4e6f74206120506861726d616379210000000000000000000000000000000000600082015250565b60006143ca600f83614383565b91506143d582614394565b602082019050919050565b600060208201905081810360008301526143f9816143bd565b9050919050565b7f4e487b7100000000000000000000000000000000000000000000000000000000600052603260045260246000fd5b60006060820190506144446000830186613e2c565b6144516020830185613ebd565b61445e6040830184613ebd565b949350505050565b7f4e487b7100000000000000000000000000000000000000000000000000000000600052602260045260246000fd5b600060028204905060018216806144ad57607f821691505b6020821081036144c0576144bf614466565b5b50919050565b60008190508160005260206000209050919050565b60006020601f8301049050919050565b600082821b905092915050565b6000600883026145287fffffffffffffffffffffffffffffffffffffffffffffffffffffffffffffffff826144eb565b61453286836144eb565b95508019841693508086168417925050509392505050565b6000819050919050565b600061456f61456a61456584613d36565b61454a565b613d36565b9050919050565b6000819050919050565b61458983614554565b61459d61459582614576565b8484546144f8565b825550505050565b600090565b6145b26145a5565b6145bd818484614580565b505050565b5b818110156145e1576145d66000826145aa565b6001810190506145c3565b5050565b601f821115614626576145f7816144c6565b614600846144db565b8101602085101561460f578190505b61462361461b856144db565b8301826145c2565b50505b505050565b600082821c905092915050565b60006146496000198460080261462b565b1980831691505092915050565b60006146628383614638565b9150826002028217905092915050565b61467b826140c4565b67ffffffffffffffff81111561469457614693613f02565b5b61469e8254614495565b6146a98282856145e5565b600060209050601f8311600181146146dc57600084156146ca578287015190505b6146d48582614656565b86555061473c565b601f1984166146ea866144c6565b60005b82811015614712578489015182556001820191506020850194506020810190506146ed565b8683101561472f578489015161472b601f891682614638565b8355505b6001600288020188555050505b505050505050565b60006060820190506147596000830186613e2c565b6147666020830185613e2c565b6147736040830184613ebd565b949350505050565b600061478682613d36565b91507fffffffffffffffffffffffffffffffffffffffffffffffffffffffffffffffff82036147b8576147b76142de565b5b600182019050919050565b7f4e6f7420612057686f6c6573616c65204469737472696275746f722100000000600082015250565b60006147f9601c83614383565b9150614804826147c3565b602082019050919050565b60006020820190508181036000830152614828816147ec565b9050919050565b600061483a82613d36565b915061484583613d36565b925082820390508181111561485d5761485c6142de565b5b92915050565b7f496e73756666696369656e742066756e642e0000000000000000000000000000600082015250565b6000614899601283614383565b91506148a482614863565b602082019050919050565b600060208201905081810360008301526148c88161488c565b9050919050565b7f4e487b7100000000000000000000000000000000000000000000000000000000600052601260045260246000fd5b600061490982613d36565b915061491483613d36565b925082614924576149236148cf565b5b828206905092915050565b600061494a61494561494084613c75565b61454a565b613c75565b9050919050565b600061495c8261492f565b9050919050565b600061496e82614951565b9050919050565b61497e81614963565b82525050565b60006080820190506149996000830187613e2c565b6149a66020830186613e2c565b6149b36040830185613e2c565b6149c06060830184614975565b95945050505050565b60006149d4826140c4565b6149de8185614383565b93506149ee8185602086016140e0565b6149f781613ef1565b840191505092915050565b6000819050919050565b6000614a27614a22614a1d84614a02565b61454a565b613d36565b9050919050565b614a3781614a0c565b82525050565b6000608082019050614a526000830187613e2c565b8181036020830152614a6481866149c9565b9050614a736040830185614a2e565b614a806060830184613e2c565b95945050505050565b7f54686572652773206e6f20647275672077697468207468652064727567206964600082015250565b6000614abf602083614383565b9150614aca82614a89565b602082019050919050565b60006020820190508181036000830152614aee81614ab2565b9050919050565b7f4e6f7420656e6f7567682064727567207175616e7469747920696e207468652060008201527f696e76656e746f72792e00000000000000000000000000000000000000000000602082015250565b6000614b51602a83614383565b9150614b5c82614af5565b604082019050919050565b60006020820190508181036000830152614b8081614b44565b9050919050565b6000606082019050614b9c6000830186613e2c565b614ba96020830185613e2c565b614bb66040830184613e2c565b949350505050565b7f4e6f7420616e20496e7375726572210000000000000000000000000000000000600082015250565b6000614bf4600f83614383565b9150614bff82614bbe565b602082019050919050565b60006020820190508181036000830152614c2381614be7565b9050919050565b60006080820190508181036000830152614c4481876149c9565b9050614c536020830186613e2c565b8181036040830152614c6581856149c9565b9050614c746060830184613ebd565b95945050505050565b6000606082019050614c926000830186613e2c565b8181036020830152614ca481856149c9565b9050614cb36040830184613e2c565b949350505050565b7f4e487b7100000000000000000000000000000000000000000000000000000000600052605160045260246000fdfea2646970667358221220ea54c84d798ef2293129450d40eca2bc3d05a3c24dfe74d5b59c981a1a2e545864736f6c63430008180033",
  "linkReferences": {},
  "deployedLinkReferences": {}
}