{
  "_format": "hh-sol-artifact-1",
  "contractName": "SupplyChain",
  "sourceName": "contracts/SupplyChain.sol",
  "abi": [
    {
      "inputs": [],
      "stateMutability": "nonpayable",
      "type": "constructor"
    },
    {
      "anonymous": false,
      "inputs": [
        {
          "indexed": false,
          "internalType": "uint256",
          "name": "discountCode",
          "type": "uint256"
        },
        {
          "indexed": false,
          "internalType": "uint256",
          "name": "drugID",
          "type": "uint256"
        },
        {
          "indexed": false,
          "internalType": "address",
          "name": "ins",
          "type": "address"
        }
      ],
      "name": "DiscountCodeAddedIN",
      "type": "event"
    },
    {
      "anonymous": false,
      "inputs": [
        {
          "indexed": false,
          "internalType": "uint256",
          "name": "id",
          "type": "uint256"
        },
        {
          "indexed": false,
          "internalType": "string",
          "name": "name",
          "type": "string"
        },
        {
          "indexed": false,
          "internalType": "uint256",
          "name": "quantity",
          "type": "uint256"
        },
        {
          "indexed": false,
          "internalType": "uint256",
          "name": "price",
          "type": "uint256"
        }
      ],
      "name": "DrugAdded",
      "type": "event"
    },
    {
      "anonymous": false,
      "inputs": [
        {
          "indexed": false,
          "internalType": "uint256",
          "name": "drugID",
          "type": "uint256"
        },
        {
          "indexed": false,
          "internalType": "uint256",
          "name": "quantity",
          "type": "uint256"
        },
        {
          "indexed": false,
          "internalType": "address",
          "name": "maAddr",
          "type": "address"
        }
      ],
      "name": "DrugAddedMA",
      "type": "event"
    },
    {
      "anonymous": false,
      "inputs": [
        {
          "indexed": false,
          "internalType": "uint256",
          "name": "drugID",
          "type": "uint256"
        },
        {
          "indexed": false,
          "internalType": "uint256",
          "name": "quantity",
          "type": "uint256"
        },
        {
          "indexed": false,
          "internalType": "address",
          "name": "phAddr",
          "type": "address"
        }
      ],
      "name": "DrugAddedPH",
      "type": "event"
    },
    {
      "anonymous": false,
      "inputs": [
        {
          "indexed": false,
          "internalType": "uint256",
          "name": "drugID",
          "type": "uint256"
        },
        {
          "indexed": false,
          "internalType": "uint256",
          "name": "quantity",
          "type": "uint256"
        },
        {
          "indexed": false,
          "internalType": "address",
          "name": "wdAddr",
          "type": "address"
        }
      ],
      "name": "DrugAddedWD",
      "type": "event"
    },
    {
      "anonymous": false,
      "inputs": [
        {
          "indexed": true,
          "internalType": "address",
          "name": "account",
          "type": "address"
        }
      ],
      "name": "INAdded",
      "type": "event"
    },
    {
      "anonymous": false,
      "inputs": [
        {
          "indexed": true,
          "internalType": "address",
          "name": "account",
          "type": "address"
        }
      ],
      "name": "INRemoved",
      "type": "event"
    },
    {
      "anonymous": false,
      "inputs": [
        {
          "indexed": true,
          "internalType": "address",
          "name": "account",
          "type": "address"
        }
      ],
      "name": "MAAdded",
      "type": "event"
    },
    {
      "anonymous": false,
      "inputs": [
        {
          "indexed": true,
          "internalType": "address",
          "name": "account",
          "type": "address"
        }
      ],
      "name": "MARemoved",
      "type": "event"
    },
    {
      "anonymous": false,
      "inputs": [
        {
          "indexed": true,
          "internalType": "address",
          "name": "account",
          "type": "address"
        },
        {
          "indexed": false,
          "internalType": "uint256",
          "name": "accNum",
          "type": "uint256"
        }
      ],
      "name": "PHAdded",
      "type": "event"
    },
    {
      "anonymous": false,
      "inputs": [
        {
          "indexed": true,
          "internalType": "address",
          "name": "account",
          "type": "address"
        }
      ],
      "name": "PHRemoved",
      "type": "event"
    },
    {
      "anonymous": false,
      "inputs": [
        {
          "indexed": false,
          "internalType": "uint256",
          "name": "reqID",
          "type": "uint256"
        },
        {
          "indexed": false,
          "internalType": "address",
          "name": "phar",
          "type": "address"
        },
        {
          "indexed": false,
          "internalType": "address",
          "name": "wd",
          "type": "address"
        }
      ],
      "name": "ReqConfirmedByPH",
      "type": "event"
    },
    {
      "anonymous": false,
      "inputs": [
        {
          "indexed": false,
          "internalType": "uint256",
          "name": "reqID",
          "type": "uint256"
        },
        {
          "indexed": false,
          "internalType": "address",
          "name": "wd",
          "type": "address"
        },
        {
          "indexed": false,
          "internalType": "address",
          "name": "ma",
          "type": "address"
        }
      ],
      "name": "ReqConfirmedByWD",
      "type": "event"
    },
    {
      "anonymous": false,
      "inputs": [
        {
          "indexed": false,
          "internalType": "uint256",
          "name": "drugID",
          "type": "uint256"
        },
        {
          "indexed": false,
          "internalType": "uint256",
          "name": "q",
          "type": "uint256"
        },
        {
          "indexed": false,
          "internalType": "uint256",
          "name": "totalPrice",
          "type": "uint256"
        },
        {
          "indexed": false,
          "internalType": "address",
          "name": "toWD",
          "type": "address"
        }
      ],
      "name": "SendRequestByPH",
      "type": "event"
    },
    {
      "anonymous": false,
      "inputs": [
        {
          "indexed": false,
          "internalType": "uint256",
          "name": "drugID",
          "type": "uint256"
        },
        {
          "indexed": false,
          "internalType": "uint256",
          "name": "quant",
          "type": "uint256"
        },
        {
          "indexed": false,
          "internalType": "uint256",
          "name": "totalPrice",
          "type": "uint256"
        },
        {
          "indexed": false,
          "internalType": "address",
          "name": "toMAaddr",
          "type": "address"
        }
      ],
      "name": "SendRequestByWD",
      "type": "event"
    },
    {
      "anonymous": false,
      "inputs": [
        {
          "indexed": false,
          "internalType": "uint256",
          "name": "drugID",
          "type": "uint256"
        },
        {
          "indexed": false,
          "internalType": "uint256",
          "name": "quant",
          "type": "uint256"
        },
        {
          "indexed": false,
          "internalType": "address",
          "name": "wd",
          "type": "address"
        }
      ],
      "name": "ShipDrugByMA",
      "type": "event"
    },
    {
      "anonymous": false,
      "inputs": [
        {
          "indexed": false,
          "internalType": "uint256",
          "name": "drugID",
          "type": "uint256"
        },
        {
          "indexed": false,
          "internalType": "uint256",
          "name": "quant",
          "type": "uint256"
        },
        {
          "indexed": false,
          "internalType": "address",
          "name": "phaddr",
          "type": "address"
        }
      ],
      "name": "ShipDrugByWD",
      "type": "event"
    },
    {
      "anonymous": false,
      "inputs": [
        {
          "indexed": true,
          "internalType": "address",
          "name": "account",
          "type": "address"
        },
        {
          "indexed": false,
          "internalType": "uint256",
          "name": "accNum",
          "type": "uint256"
        }
      ],
      "name": "WDAdded",
      "type": "event"
    },
    {
      "anonymous": false,
      "inputs": [
        {
          "indexed": true,
          "internalType": "address",
          "name": "account",
          "type": "address"
        }
      ],
      "name": "WDRemoved",
      "type": "event"
    },
    {
      "inputs": [
        {
          "internalType": "uint256",
          "name": "dcCode",
          "type": "uint256"
        },
        {
          "internalType": "uint256",
          "name": "discountprice",
          "type": "uint256"
        },
        {
          "internalType": "uint256",
          "name": "drugID",
          "type": "uint256"
        },
        {
          "internalType": "address",
          "name": "ins",
          "type": "address"
        }
      ],
      "name": "addDiscountInIN",
      "outputs": [],
      "stateMutability": "nonpayable",
      "type": "function"
    },
    {
      "inputs": [
        {
          "internalType": "string",
          "name": "name",
          "type": "string"
        },
        {
          "internalType": "uint256",
          "name": "price",
          "type": "uint256"
        }
      ],
      "name": "addDrug",
      "outputs": [],
      "stateMutability": "nonpayable",
      "type": "function"
    },
    {
      "inputs": [
        {
          "internalType": "uint256",
          "name": "dID",
          "type": "uint256"
        },
        {
          "internalType": "uint256",
          "name": "quant",
          "type": "uint256"
        },
        {
          "internalType": "address",
          "name": "WD",
          "type": "address"
        },
        {
          "internalType": "address",
          "name": "MA",
          "type": "address"
        }
      ],
      "name": "addDrugInPH",
      "outputs": [],
      "stateMutability": "nonpayable",
      "type": "function"
    },
    {
      "inputs": [
        {
          "internalType": "uint256",
          "name": "dID",
          "type": "uint256"
        },
        {
          "internalType": "uint256",
          "name": "quant",
          "type": "uint256"
        },
        {
          "internalType": "address",
          "name": "MA",
          "type": "address"
        }
      ],
      "name": "addDrugInWD",
      "outputs": [],
      "stateMutability": "nonpayable",
      "type": "function"
    },
    {
      "inputs": [],
      "name": "addInitialDiscounts",
      "outputs": [],
      "stateMutability": "nonpayable",
      "type": "function"
    },
    {
      "inputs": [],
      "name": "addInitialDrugs",
      "outputs": [],
      "stateMutability": "nonpayable",
      "type": "function"
    },
    {
      "inputs": [],
      "name": "addInitialDrugsMA",
      "outputs": [],
      "stateMutability": "nonpayable",
      "type": "function"
    },
    {
      "inputs": [],
      "name": "addInitialDrugsPH",
      "outputs": [],
      "stateMutability": "nonpayable",
      "type": "function"
    },
    {
      "inputs": [],
      "name": "addInitialDrugsWD",
      "outputs": [],
      "stateMutability": "nonpayable",
      "type": "function"
    },
    {
      "inputs": [],
      "name": "addPHaccounts",
      "outputs": [],
      "stateMutability": "nonpayable",
      "type": "function"
    },
    {
      "inputs": [
        {
          "internalType": "address",
          "name": "account",
          "type": "address"
        }
      ],
      "name": "addThisAsIN",
      "outputs": [],
      "stateMutability": "nonpayable",
      "type": "function"
    },
    {
      "inputs": [
        {
          "internalType": "address",
          "name": "account",
          "type": "address"
        }
      ],
      "name": "addThisAsMA",
      "outputs": [],
      "stateMutability": "nonpayable",
      "type": "function"
    },
    {
      "inputs": [
        {
          "internalType": "address",
          "name": "account",
          "type": "address"
        }
      ],
      "name": "addThisAsPH",
      "outputs": [],
      "stateMutability": "nonpayable",
      "type": "function"
    },
    {
      "inputs": [
        {
          "internalType": "address",
          "name": "account",
          "type": "address"
        }
      ],
      "name": "addThisAsWD",
      "outputs": [],
      "stateMutability": "nonpayable",
      "type": "function"
    },
    {
      "inputs": [
        {
          "internalType": "uint256",
          "name": "reqID",
          "type": "uint256"
        },
        {
          "internalType": "uint256",
          "name": "quant",
          "type": "uint256"
        },
        {
          "internalType": "address",
          "name": "toWDaddr",
          "type": "address"
        }
      ],
      "name": "confirmDrugShipmentPH",
      "outputs": [],
      "stateMutability": "nonpayable",
      "type": "function"
    },
    {
      "inputs": [
        {
          "internalType": "uint256",
          "name": "reqID",
          "type": "uint256"
        },
        {
          "internalType": "uint256",
          "name": "quant",
          "type": "uint256"
        },
        {
          "internalType": "address",
          "name": "toMAaddr",
          "type": "address"
        }
      ],
      "name": "confirmDrugShipmentWD",
      "outputs": [],
      "stateMutability": "nonpayable",
      "type": "function"
    },
    {
      "inputs": [
        {
          "internalType": "uint256",
          "name": "",
          "type": "uint256"
        }
      ],
      "name": "discountCodes",
      "outputs": [
        {
          "internalType": "uint256",
          "name": "discountCode",
          "type": "uint256"
        },
        {
          "internalType": "address",
          "name": "insurer",
          "type": "address"
        },
        {
          "internalType": "uint256",
          "name": "drugID",
          "type": "uint256"
        },
        {
          "internalType": "uint256",
          "name": "discountPrice",
          "type": "uint256"
        },
        {
          "internalType": "uint256",
          "name": "dateFinalized",
          "type": "uint256"
        }
      ],
      "stateMutability": "view",
      "type": "function"
    },
    {
      "inputs": [
        {
          "internalType": "uint256",
          "name": "dc",
          "type": "uint256"
        }
      ],
      "name": "findDCcode",
      "outputs": [
        {
          "internalType": "uint256",
          "name": "",
          "type": "uint256"
        }
      ],
      "stateMutability": "view",
      "type": "function"
    },
    {
      "inputs": [
        {
          "internalType": "uint256",
          "name": "dID",
          "type": "uint256"
        }
      ],
      "name": "findDrugInMA",
      "outputs": [
        {
          "internalType": "uint256",
          "name": "",
          "type": "uint256"
        }
      ],
      "stateMutability": "view",
      "type": "function"
    },
    {
      "inputs": [
        {
          "internalType": "uint256",
          "name": "dID",
          "type": "uint256"
        }
      ],
      "name": "findDrugInPH",
      "outputs": [
        {
          "internalType": "uint256",
          "name": "",
          "type": "uint256"
        }
      ],
      "stateMutability": "view",
      "type": "function"
    },
    {
      "inputs": [
        {
          "internalType": "uint256",
          "name": "dID",
          "type": "uint256"
        }
      ],
      "name": "findDrugInWD",
      "outputs": [
        {
          "internalType": "uint256",
          "name": "",
          "type": "uint256"
        }
      ],
      "stateMutability": "view",
      "type": "function"
    },
    {
      "inputs": [
        {
          "internalType": "uint256",
          "name": "reqID",
          "type": "uint256"
        }
      ],
      "name": "findRequestInMA",
      "outputs": [
        {
          "internalType": "uint256",
          "name": "",
          "type": "uint256"
        }
      ],
      "stateMutability": "view",
      "type": "function"
    },
    {
      "inputs": [
        {
          "internalType": "uint256",
          "name": "reqID",
          "type": "uint256"
        }
      ],
      "name": "findRequestInPH",
      "outputs": [
        {
          "internalType": "uint256",
          "name": "",
          "type": "uint256"
        }
      ],
      "stateMutability": "nonpayable",
      "type": "function"
    },
    {
      "inputs": [
        {
          "internalType": "uint256",
          "name": "reqID",
          "type": "uint256"
        }
      ],
      "name": "findRequestInPHout",
      "outputs": [
        {
          "internalType": "uint256",
          "name": "",
          "type": "uint256"
        }
      ],
      "stateMutability": "view",
      "type": "function"
    },
    {
      "inputs": [
        {
          "internalType": "uint256",
          "name": "reqID",
          "type": "uint256"
        }
      ],
      "name": "findRequestInWDMA",
      "outputs": [
        {
          "internalType": "uint256",
          "name": "",
          "type": "uint256"
        }
      ],
      "stateMutability": "view",
      "type": "function"
    },
    {
      "inputs": [
        {
          "internalType": "uint256",
          "name": "reqID",
          "type": "uint256"
        }
      ],
      "name": "findRequestInWDPH",
      "outputs": [
        {
          "internalType": "uint256",
          "name": "",
          "type": "uint256"
        }
      ],
      "stateMutability": "view",
      "type": "function"
    },
    {
      "inputs": [],
      "name": "getAllDiscounts",
      "outputs": [
        {
          "components": [
            {
              "internalType": "uint256",
              "name": "discountCode",
              "type": "uint256"
            },
            {
              "internalType": "address",
              "name": "insurer",
              "type": "address"
            },
            {
              "internalType": "uint256",
              "name": "drugID",
              "type": "uint256"
            },
            {
              "internalType": "uint256",
              "name": "discountPrice",
              "type": "uint256"
            },
            {
              "internalType": "uint256",
              "name": "dateFinalized",
              "type": "uint256"
            }
          ],
          "internalType": "struct SupplyChain.Discount[]",
          "name": "",
          "type": "tuple[]"
        }
      ],
      "stateMutability": "view",
      "type": "function"
    },
    {
      "inputs": [],
      "name": "getAllIN",
      "outputs": [
        {
          "internalType": "address[]",
          "name": "",
          "type": "address[]"
        }
      ],
      "stateMutability": "view",
      "type": "function"
    },
    {
      "inputs": [],
      "name": "getAllMA",
      "outputs": [
        {
          "internalType": "address[]",
          "name": "",
          "type": "address[]"
        }
      ],
      "stateMutability": "view",
      "type": "function"
    },
    {
      "inputs": [],
      "name": "getAllPH",
      "outputs": [
        {
          "internalType": "address[]",
          "name": "",
          "type": "address[]"
        }
      ],
      "stateMutability": "view",
      "type": "function"
    },
    {
      "inputs": [],
      "name": "getAllRequestsMA",
      "outputs": [
        {
          "components": [
            {
              "internalType": "uint256",
              "name": "requestID",
              "type": "uint256"
            },
            {
              "internalType": "uint256",
              "name": "drugID",
              "type": "uint256"
            },
            {
              "internalType": "uint256",
              "name": "quant",
              "type": "uint256"
            },
            {
              "internalType": "uint256",
              "name": "totalPrice",
              "type": "uint256"
            },
            {
              "internalType": "uint256",
              "name": "dcCode",
              "type": "uint256"
            },
            {
              "internalType": "address",
              "name": "sender",
              "type": "address"
            },
            {
              "internalType": "address",
              "name": "receiver",
              "type": "address"
            },
            {
              "internalType": "address",
              "name": "manufacturer",
              "type": "address"
            },
            {
              "internalType": "bool",
              "name": "confirmed",
              "type": "bool"
            }
          ],
          "internalType": "struct SupplyChain.DrugRequest[]",
          "name": "",
          "type": "tuple[]"
        }
      ],
      "stateMutability": "view",
      "type": "function"
    },
    {
      "inputs": [],
      "name": "getAllRequestsPH",
      "outputs": [
        {
          "components": [
            {
              "internalType": "uint256",
              "name": "requestID",
              "type": "uint256"
            },
            {
              "internalType": "uint256",
              "name": "drugID",
              "type": "uint256"
            },
            {
              "internalType": "uint256",
              "name": "quant",
              "type": "uint256"
            },
            {
              "internalType": "uint256",
              "name": "totalPrice",
              "type": "uint256"
            },
            {
              "internalType": "uint256",
              "name": "dcCode",
              "type": "uint256"
            },
            {
              "internalType": "address",
              "name": "sender",
              "type": "address"
            },
            {
              "internalType": "address",
              "name": "receiver",
              "type": "address"
            },
            {
              "internalType": "address",
              "name": "manufacturer",
              "type": "address"
            },
            {
              "internalType": "bool",
              "name": "confirmed",
              "type": "bool"
            }
          ],
          "internalType": "struct SupplyChain.DrugRequest[]",
          "name": "",
          "type": "tuple[]"
        }
      ],
      "stateMutability": "view",
      "type": "function"
    },
    {
      "inputs": [],
      "name": "getAllRequestsWDMA",
      "outputs": [
        {
          "components": [
            {
              "internalType": "uint256",
              "name": "requestID",
              "type": "uint256"
            },
            {
              "internalType": "uint256",
              "name": "drugID",
              "type": "uint256"
            },
            {
              "internalType": "uint256",
              "name": "quant",
              "type": "uint256"
            },
            {
              "internalType": "uint256",
              "name": "totalPrice",
              "type": "uint256"
            },
            {
              "internalType": "uint256",
              "name": "dcCode",
              "type": "uint256"
            },
            {
              "internalType": "address",
              "name": "sender",
              "type": "address"
            },
            {
              "internalType": "address",
              "name": "receiver",
              "type": "address"
            },
            {
              "internalType": "address",
              "name": "manufacturer",
              "type": "address"
            },
            {
              "internalType": "bool",
              "name": "confirmed",
              "type": "bool"
            }
          ],
          "internalType": "struct SupplyChain.DrugRequest[]",
          "name": "",
          "type": "tuple[]"
        }
      ],
      "stateMutability": "view",
      "type": "function"
    },
    {
      "inputs": [],
      "name": "getAllRequestsWDPH",
      "outputs": [
        {
          "components": [
            {
              "internalType": "uint256",
              "name": "requestID",
              "type": "uint256"
            },
            {
              "internalType": "uint256",
              "name": "drugID",
              "type": "uint256"
            },
            {
              "internalType": "uint256",
              "name": "quant",
              "type": "uint256"
            },
            {
              "internalType": "uint256",
              "name": "totalPrice",
              "type": "uint256"
            },
            {
              "internalType": "uint256",
              "name": "dcCode",
              "type": "uint256"
            },
            {
              "internalType": "address",
              "name": "sender",
              "type": "address"
            },
            {
              "internalType": "address",
              "name": "receiver",
              "type": "address"
            },
            {
              "internalType": "address",
              "name": "manufacturer",
              "type": "address"
            },
            {
              "internalType": "bool",
              "name": "confirmed",
              "type": "bool"
            }
          ],
          "internalType": "struct SupplyChain.DrugRequest[]",
          "name": "",
          "type": "tuple[]"
        }
      ],
      "stateMutability": "view",
      "type": "function"
    },
    {
      "inputs": [],
      "name": "getAllWD",
      "outputs": [
        {
          "internalType": "address[]",
          "name": "",
          "type": "address[]"
        }
      ],
      "stateMutability": "view",
      "type": "function"
    },
    {
      "inputs": [
        {
          "internalType": "uint256",
          "name": "accNumber",
          "type": "uint256"
        }
      ],
      "name": "getINaddr",
      "outputs": [
        {
          "internalType": "address",
          "name": "",
          "type": "address"
        }
      ],
      "stateMutability": "view",
      "type": "function"
    },
    {
      "inputs": [
        {
          "internalType": "uint256",
          "name": "accNumber",
          "type": "uint256"
        }
      ],
      "name": "getMAaddr",
      "outputs": [
        {
          "internalType": "address",
          "name": "",
          "type": "address"
        }
      ],
      "stateMutability": "view",
      "type": "function"
    },
    {
      "inputs": [
        {
          "internalType": "uint256",
          "name": "accNumber",
          "type": "uint256"
        }
      ],
      "name": "getPHaddr",
      "outputs": [
        {
          "internalType": "address",
          "name": "",
          "type": "address"
        }
      ],
      "stateMutability": "view",
      "type": "function"
    },
    {
      "inputs": [],
      "name": "getRequestIDMA",
      "outputs": [
        {
          "internalType": "uint256",
          "name": "",
          "type": "uint256"
        }
      ],
      "stateMutability": "view",
      "type": "function"
    },
    {
      "inputs": [],
      "name": "getRequestIDPH",
      "outputs": [
        {
          "internalType": "uint256",
          "name": "",
          "type": "uint256"
        }
      ],
      "stateMutability": "view",
      "type": "function"
    },
    {
      "inputs": [],
      "name": "getRequestIDWD",
      "outputs": [
        {
          "internalType": "uint256",
          "name": "",
          "type": "uint256"
        }
      ],
      "stateMutability": "view",
      "type": "function"
    },
    {
      "inputs": [],
      "name": "getRequestIDWDMA",
      "outputs": [
        {
          "internalType": "uint256",
          "name": "",
          "type": "uint256"
        }
      ],
      "stateMutability": "view",
      "type": "function"
    },
    {
      "inputs": [
        {
          "internalType": "uint256",
          "name": "accNumber",
          "type": "uint256"
        }
      ],
      "name": "getWDaddr",
      "outputs": [
        {
          "internalType": "address",
          "name": "",
          "type": "address"
        }
      ],
      "stateMutability": "view",
      "type": "function"
    },
    {
      "inputs": [
        {
          "internalType": "address",
          "name": "account",
          "type": "address"
        }
      ],
      "name": "isIN",
      "outputs": [
        {
          "internalType": "bool",
          "name": "",
          "type": "bool"
        }
      ],
      "stateMutability": "view",
      "type": "function"
    },
    {
      "inputs": [
        {
          "internalType": "address",
          "name": "account",
          "type": "address"
        }
      ],
      "name": "isMA",
      "outputs": [
        {
          "internalType": "bool",
          "name": "",
          "type": "bool"
        }
      ],
      "stateMutability": "view",
      "type": "function"
    },
    {
      "inputs": [
        {
          "internalType": "address",
          "name": "account",
          "type": "address"
        }
      ],
      "name": "isPH",
      "outputs": [
        {
          "internalType": "bool",
          "name": "",
          "type": "bool"
        }
      ],
      "stateMutability": "view",
      "type": "function"
    },
    {
      "inputs": [
        {
          "internalType": "address",
          "name": "account",
          "type": "address"
        }
      ],
      "name": "isWD",
      "outputs": [
        {
          "internalType": "bool",
          "name": "",
          "type": "bool"
        }
      ],
      "stateMutability": "view",
      "type": "function"
    },
    {
      "inputs": [],
      "name": "retrieveInventoryMAFront",
      "outputs": [
        {
          "components": [
            {
              "internalType": "uint256",
              "name": "id",
              "type": "uint256"
            },
            {
              "internalType": "string",
              "name": "name",
              "type": "string"
            },
            {
              "internalType": "uint256",
              "name": "price",
              "type": "uint256"
            },
            {
              "internalType": "uint256",
              "name": "quantity",
              "type": "uint256"
            },
            {
              "internalType": "address",
              "name": "currentOwner",
              "type": "address"
            },
            {
              "internalType": "address",
              "name": "manufacturer",
              "type": "address"
            },
            {
              "internalType": "address",
              "name": "wholesale",
              "type": "address"
            },
            {
              "internalType": "address",
              "name": "pharmacy",
              "type": "address"
            },
            {
              "internalType": "bool",
              "name": "isSoldOut",
              "type": "bool"
            }
          ],
          "internalType": "struct SupplyChain.Drug[]",
          "name": "",
          "type": "tuple[]"
        }
      ],
      "stateMutability": "view",
      "type": "function"
    },
    {
      "inputs": [],
      "name": "retrieveInventoryPHFront",
      "outputs": [
        {
          "components": [
            {
              "internalType": "uint256",
              "name": "id",
              "type": "uint256"
            },
            {
              "internalType": "string",
              "name": "name",
              "type": "string"
            },
            {
              "internalType": "uint256",
              "name": "price",
              "type": "uint256"
            },
            {
              "internalType": "uint256",
              "name": "quantity",
              "type": "uint256"
            },
            {
              "internalType": "address",
              "name": "currentOwner",
              "type": "address"
            },
            {
              "internalType": "address",
              "name": "manufacturer",
              "type": "address"
            },
            {
              "internalType": "address",
              "name": "wholesale",
              "type": "address"
            },
            {
              "internalType": "address",
              "name": "pharmacy",
              "type": "address"
            },
            {
              "internalType": "bool",
              "name": "isSoldOut",
              "type": "bool"
            }
          ],
          "internalType": "struct SupplyChain.Drug[]",
          "name": "",
          "type": "tuple[]"
        }
      ],
      "stateMutability": "view",
      "type": "function"
    },
    {
      "inputs": [],
      "name": "retrieveInventoryWDFront",
      "outputs": [
        {
          "components": [
            {
              "internalType": "uint256",
              "name": "id",
              "type": "uint256"
            },
            {
              "internalType": "string",
              "name": "name",
              "type": "string"
            },
            {
              "internalType": "uint256",
              "name": "price",
              "type": "uint256"
            },
            {
              "internalType": "uint256",
              "name": "quantity",
              "type": "uint256"
            },
            {
              "internalType": "address",
              "name": "currentOwner",
              "type": "address"
            },
            {
              "internalType": "address",
              "name": "manufacturer",
              "type": "address"
            },
            {
              "internalType": "address",
              "name": "wholesale",
              "type": "address"
            },
            {
              "internalType": "address",
              "name": "pharmacy",
              "type": "address"
            },
            {
              "internalType": "bool",
              "name": "isSoldOut",
              "type": "bool"
            }
          ],
          "internalType": "struct SupplyChain.Drug[]",
          "name": "",
          "type": "tuple[]"
        }
      ],
      "stateMutability": "view",
      "type": "function"
    },
    {
      "inputs": [
        {
          "internalType": "uint256",
          "name": "drugID",
          "type": "uint256"
        },
        {
          "internalType": "uint256",
          "name": "quant",
          "type": "uint256"
        },
        {
          "internalType": "address",
          "name": "wdaddr",
          "type": "address"
        },
        {
          "internalType": "uint256",
          "name": "dcCode",
          "type": "uint256"
        }
      ],
      "name": "sendDrugRequestPH",
      "outputs": [],
      "stateMutability": "payable",
      "type": "function"
    },
    {
      "inputs": [
        {
          "internalType": "uint256",
          "name": "drugID",
          "type": "uint256"
        },
        {
          "internalType": "uint256",
          "name": "quant",
          "type": "uint256"
        },
        {
          "internalType": "address",
          "name": "MAaddr",
          "type": "address"
        }
      ],
      "name": "sendDrugRequestWD",
      "outputs": [],
      "stateMutability": "payable",
      "type": "function"
    },
    {
      "inputs": [
        {
          "internalType": "uint256",
          "name": "drugID",
          "type": "uint256"
        },
        {
          "internalType": "uint256",
          "name": "quant",
          "type": "uint256"
        },
        {
          "internalType": "address",
          "name": "toWDaddr",
          "type": "address"
        },
        {
          "internalType": "uint256",
          "name": "reqID",
          "type": "uint256"
        }
      ],
      "name": "shipDrugMA",
      "outputs": [],
      "stateMutability": "nonpayable",
      "type": "function"
    },
    {
      "inputs": [
        {
          "internalType": "uint256",
          "name": "drugID",
          "type": "uint256"
        },
        {
          "internalType": "uint256",
          "name": "quant",
          "type": "uint256"
        },
        {
          "internalType": "address",
          "name": "toPHaddr",
          "type": "address"
        },
        {
          "internalType": "uint256",
          "name": "reqID",
          "type": "uint256"
        }
      ],
      "name": "shipDrugWD",
      "outputs": [],
      "stateMutability": "nonpayable",
      "type": "function"
    },
    {
      "inputs": [],
      "name": "showAllIN",
      "outputs": [
        {
          "internalType": "address[]",
          "name": "",
          "type": "address[]"
        }
      ],
      "stateMutability": "view",
      "type": "function"
    },
    {
      "inputs": [],
      "name": "showAllMA",
      "outputs": [
        {
          "internalType": "address[]",
          "name": "",
          "type": "address[]"
        }
      ],
      "stateMutability": "view",
      "type": "function"
    },
    {
      "inputs": [],
      "name": "showAllPH",
      "outputs": [
        {
          "internalType": "address[]",
          "name": "",
          "type": "address[]"
        }
      ],
      "stateMutability": "view",
      "type": "function"
    },
    {
      "inputs": [],
      "name": "showAllWD",
      "outputs": [
        {
          "internalType": "address[]",
          "name": "",
          "type": "address[]"
        }
      ],
      "stateMutability": "view",
      "type": "function"
    }
  ],
  "bytecode": "0x60806040523480156200001157600080fd5b506000600281905560038190556008819055600b819055600c80546001600160a01b031916331790556016819055601781905560185562000051620000bc565b6200005b62000166565b62000065620001d8565b6200006f62000290565b6200007962000897565b6200008362000e8a565b60408051808201909152601181527010dbdb9d1c9d58dd1bdc8818d85b1b1959607a1b6020820152620000b69062000f1f565b62001ba8565b60408051808201909152600681526544727567204160d01b6020820152620000e690601e62000f6d565b60408051808201909152600681526522393ab3902160d11b60208201526200011090601462000f6d565b60408051808201909152600681526544727567204360d01b60208201526200013a90603c62000f6d565b604080518082019091526006815265111c9d59c81160d21b60208201526200016490605a62000f6d565b565b6200018573f39fd6e51aad88f6f4ce6ab8827279cfffb92266620010dd565b6200019f6000805160206200731983398151915262001113565b620001be733c44cdddb6a900fa2b585dd299e03d12fa4293bc6200114e565b62000164600080516020620072f983398151915262001189565b620002066000600a60008051602062007319833981519152600080516020620072f9833981519152620011c4565b620002346001600560008051602062007319833981519152600080516020620072f9833981519152620011c4565b620002626002601e60008051602062007319833981519152600080516020620072f9833981519152620011c4565b620001646003602860008051602062007319833981519152600080516020620072f9833981519152620011c4565b60006200029e6001620014b2565b90506000620002ae6003620014d1565b6001600160a01b03808416600081815260146020908152604080832081516101208101835284815282518084018452600681526544727567204160d01b81860152818501908152601e93820193909352606660608201526080810186905295871660a087015260c086019490945260e08501839052610100850183905283546001818101865594845291909220845160089092020190815590519394509192908201906200035d9082620019d2565b506040828101516002830155606080840151600384015560808401516004840180546001600160a01b039283166001600160a01b03199182161790915560a086015160058601805491841691831691909117905560c08601516006860180549184169190921617905560e085015160079094018054610100909601511515600160a01b026001600160a81b03199096169482169490941794909417909255805160008152606660208201529285169083015260008051602062007339833981519152910160405180910390a16001600160a01b038083166000818152601460208181526040808420815161012081018352600180825283518085018552600681526522393ab3902160d11b8187015282860190815293820195909552603c60608201526080810187905296881660a088015260c087019590955260e0860184905261010086018490528454808401865594845292208451600890940201928355905190820190620004cf9082620019d2565b506040828101516002830155606080840151600384015560808401516004840180546001600160a01b039283166001600160a01b03199182161790915560a086015160058601805491841691831691909117905560c08601516006860180549184169190921617905560e085015160079094018054610100909601511515600160a01b026001600160a81b03199096169482169490941794909417909255805160018152603c60208201529285169083015260008051602062007339833981519152910160405180910390a16001600160a01b0380831660008181526014602081815260408084208151610120810183526002815282518084018452600681526544727567204360d01b81860152818501908152603c9382019390935260608101949094526080840186905295871660a084015260c083019490945260e0820183905261010082018390528454600181810187559584529220815160089093020191825591519192909190820190620006499082620019d2565b50604082810151600283810191909155606080850151600385015560808501516004850180546001600160a01b039283166001600160a01b03199182161790915560a087015160058701805491841691831691909117905560c08701516006870180549184169190921617905560e086015160079095018054610100909701511515600160a01b026001600160a81b031990971695821695909517959095179093558151908152601460208201529285169083015260008051602062007339833981519152910160405180910390a16001600160a01b03808316600081815260146020908152604080832081516101208101835260038152825180840184526006815265111c9d59c81160d21b81860152818501908152605a93820193909352600f60608201526080810186905295871660a087015260c086019490945260e08501839052610100850183905283546001818101865594845291909220845160089092020190815590519091820190620007c49082620019d2565b50604082810151600283015560608084015160038085019190915560808501516004850180546001600160a01b039283166001600160a01b03199182161790915560a087015160058701805491841691831691909117905560c08701516006870180549184169190921617905560e086015160079095018054610100909701511515600160a01b026001600160a81b031990971695821695909517959095179093558151928352600f60208401529285169082015260008051602062007339833981519152910160405180910390a15050565b6000620008a56003620014d1565b6001600160a01b038116600081815260156020908152604080832081516101208101835284815282518084018452600681526544727567204160d01b81860152818501908152601e9382019390935260f660608201526080810186905260a081019590955260c0850184905260e08501849052610100850184905280546001818101835591855292909320845160089093020191825551939450919290820190620009519082620019d2565b506040828101516002830155606080840151600384015560808401516004840180546001600160a01b039283166001600160a01b03199182161790915560a086015160058601805491841691831691909117905560c08601516006860180549184169190921617905560e085015160079094018054610100909601511515600160a01b026001600160a81b0319909616948216949094179490941790925580516000815260f660208201529284169083015260008051602062007359833981519152910160405180910390a16001600160a01b0381166000818152601560209081526040808320815161012081018352600180825283518085018552600681526522393ab3902160d11b818701528286019081526014948301949094526102b460608301526080820187905260a082019690965260c0810185905260e0810185905261010081018590528154808701835591855292909320825160089094020192835551909282019062000ac69082620019d2565b506040828101516002830155606080840151600384015560808401516004840180546001600160a01b039283166001600160a01b03199182161790915560a086015160058601805491841691831691909117905560c08601516006860180549184169190921617905560e085015160079094018054610100909601511515600160a01b026001600160a81b031990961694821694909417949094179092558051600181526102b460208201529284169083015260008051602062007359833981519152910160405180910390a16001600160a01b03811660008181526015602090815260408083208151610120810183526002815282518084018452600681526544727567204360d01b81860152818501908152603c9382019390935261032460608201526080810186905260a081019590955260c0850184905260e08501849052610100850184905280546001818101835591855292909320845160089093020191825551909182019062000c3d9082620019d2565b50604082810151600283810191909155606080850151600385015560808501516004850180546001600160a01b039283166001600160a01b03199182161790915560a087015160058701805491841691831691909117905560c08701516006870180549184169190921617905560e086015160079095018054610100909701511515600160a01b026001600160a81b03199097169582169590951795909517909355815190815261032460208201529284169083015260008051602062007359833981519152910160405180910390a16001600160a01b038116600081815260156020908152604080832081516101208101835260038152825180840184526006815265111c9d59c81160d21b81860152818501908152605a9382019390935261030b60608201526080810186905260a081019590955260c0850184905260e08501849052610100850184905280546001818101835591855292909320845160089093020191825551909182019062000db79082620019d2565b50604082810151600283015560608084015160038085019190915560808501516004850180546001600160a01b039283166001600160a01b03199182161790915560a087015160058701805491841691831691909117905560c08701516006870180549184169190921617905560e086015160079095018054610100909701511515600160a01b026001600160a81b03199097169582169590951795909517909355815192835261030b60208401529284169082015260008051602062007359833981519152910160405180910390a150565b62000eaf606560036000733c44cdddb6a900fa2b585dd299e03d12fa4293bc620014ef565b62000ed360ca600180733c44cdddb6a900fa2b585dd299e03d12fa4293bc620014ef565b62000ef961012f60066002733c44cdddb6a900fa2b585dd299e03d12fa4293bc620014ef565b6200016461019460076003733c44cdddb6a900fa2b585dd299e03d12fa4293bc620014ef565b62000f6a8160405160240162000f36919062001ae6565b60408051601f198184030181529190526020810180516001600160e01b0390811663104c13eb60e21b179091526200165416565b50565b601680546040805161012081018252828152602081018690529081018490526000606082018190526080820181905260a0820181905260c0820181905260e08201819052610100820181905291929091600d9184908262000fce8362001b18565b9091555081526020808201929092526040016000208251815590820151600182019062000ffc9082620019d2565b5060408281015160028301556060830151600383015560808301516004830180546001600160a01b039283166001600160a01b03199182161790915560a085015160058501805491841691831691909117905560c08501516006850180549184169190921617905560e084015160079093018054610100909501511515600160a01b026001600160a81b03199095169390911692909217929092179055517f5b5755b262b850b85821421089fb7b9f0989af8fbdbb918ac09d7dd30087d21290620010d09083908690600090879062001b34565b60405180910390a1505050565b620010f9816002546005620010f3919062001b62565b6200166a565b600280549060006200110b8362001b18565b919050555050565b6200113c81600854600562001129919062001b62565b6200113690600162001b7c565b620016c0565b600880549060006200110b8362001b18565b6200117781600b54600562001164919062001b62565b6200117190600262001b7c565b6200170a565b600b80549060006200110b8362001b18565b620011b28160035460056200119f919062001b62565b620011ac90600362001b7c565b62001750565b600380549060006200110b8362001b18565b620011cf3362001796565b620012135760405162461bcd60e51b815260206004820152600f60248201526e4e6f74206120506861726d6163792160881b60448201526064015b60405180910390fd5b60006200122085620017a4565b3360009081526013602052604090205490915081036200141d57336000908152601360209081526040808320815161012081018352898152898552600d84529190932060010180549192830191620012789062001941565b80601f0160208091040260200160405190810160405280929190818152602001828054620012a69062001941565b8015620012f75780601f10620012cb57610100808354040283529160200191620012f7565b820191906000526020600020905b815481529060010190602001808311620012d957829003601f168201915b50505091835250506000888152600d602090815260408083206002015482850152830189905233606084018190526001600160a01b038881166080860152891660a085015260c084015260e09092018190528354600181810186559482529082902083516008909202019081559082015191929091908201906200137c9082620019d2565b50604082015160028201556060820151600382015560808201516004820180546001600160a01b03199081166001600160a01b039384161790915560a0840151600584018054831691841691909117905560c084015160068401805490921690831617905560e08301516007909201805461010090940151929091166001600160a81b031990931692909217600160a01b911515919091021790556200146c565b33600090815260136020526040902080548591908390811062001444576200144462001b92565b9060005260206000209060080201600301600082825462001466919062001b7c565b90915550505b6040805186815260208101869052338183015290517f01fd8585134bd20524c063b363e68b00637654b3b8f14c0d45f8bb068faf3b349181900360600190a15050505050565b6000818152600660205260408120546001600160a01b03165b92915050565b6000818152600460205260408120546001600160a01b0316620014cb565b6040805160a0810182528581526001600160a01b03838116602080840191825283850187815260608086018a815242608088019081526012805460018101825560009190915297517fbb8a6a4669ba250d26cd7a459eca9d215f8307e33aebe50379bc5a3617ec344460059099029889015594517fbb8a6a4669ba250d26cd7a459eca9d215f8307e33aebe50379bc5a3617ec3445880180546001600160a01b031916919097161790955590517fbb8a6a4669ba250d26cd7a459eca9d215f8307e33aebe50379bc5a3617ec344686015592517fbb8a6a4669ba250d26cd7a459eca9d215f8307e33aebe50379bc5a3617ec344785015590517fbb8a6a4669ba250d26cd7a459eca9d215f8307e33aebe50379bc5a3617ec344890930192909255825187815291820185905233928201929092527ff46e3888ab01efac692e1fd05a80154671dd88da2bd40bd258466857b2c8c3d4910160405180910390a150505050565b62000f6a816200186260201b62004bb91760201c565b620016786000838362001883565b816001600160a01b03167f208939ccf3c0b1e4d56ede20000b38c0154e92a4137f57f8f75c6568488c4a3a82604051620016b491815260200190565b60405180910390a25050565b620016ce6006838362001883565b816001600160a01b03167fa979e61f070c3dcad6f4ad6e371f80e4647f338cf5e8bb3c517ec5cd52d90e8282604051620016b491815260200190565b620017186009838362001883565b6040516001600160a01b038316907fd9ca880bfd1de8a3f1e9b43db37e2f153997e67347efe3c29ee2938ecf53568190600090a25050565b6200175e6004838362001883565b6040516001600160a01b038316907f1b75342144357c1041167b44af1fb2fb1922a55e78798a1d0bffae81ae56952290600090a25050565b6000620014cb8183620018f2565b6000620017b13362001796565b620017f15760405162461bcd60e51b815260206004820152600f60248201526e4e6f74206120506861726d6163792160881b60448201526064016200120a565b336000908152601360205260408120549081905b828110156200185a5733600090815260136020526040902080548691908390811062001835576200183562001b92565b9060005260206000209060080201600001540362001851578091505b60010162001805565b509392505050565b60006a636f6e736f6c652e6c6f679050600080835160208501845afa505050565b6001600160a01b0382166200189757600080fd5b620018a38383620018f2565b15620018ae57600080fd5b60009081526020838152604080832080546001600160a01b039095166001600160a01b0319909516851790559282526001938401905220805460ff19169091179055565b60006001600160a01b0382166200190857600080fd5b506001600160a01b03166000908152600191909101602052604090205460ff1690565b634e487b7160e01b600052604160045260246000fd5b600181811c908216806200195657607f821691505b6020821081036200197757634e487b7160e01b600052602260045260246000fd5b50919050565b601f821115620019cd576000816000526020600020601f850160051c81016020861015620019a85750805b601f850160051c820191505b81811015620019c957828155600101620019b4565b5050505b505050565b81516001600160401b03811115620019ee57620019ee6200192b565b62001a0681620019ff845462001941565b846200197d565b602080601f83116001811462001a3e576000841562001a255750858301515b600019600386901b1c1916600185901b178555620019c9565b600085815260208120601f198616915b8281101562001a6f5788860151825594840194600190910190840162001a4e565b508582101562001a8e5787850151600019600388901b60f8161c191681555b5050505050600190811b01905550565b6000815180845260005b8181101562001ac65760208185018101518683018201520162001aa8565b506000602082860101526020601f19601f83011685010191505092915050565b60208152600062001afb602083018462001a9e565b9392505050565b634e487b7160e01b600052601160045260246000fd5b60006001820162001b2d5762001b2d62001b02565b5060010190565b84815260806020820152600062001b4f608083018662001a9e565b6040830194909452506060015292915050565b8082028115828204841417620014cb57620014cb62001b02565b80820180821115620014cb57620014cb62001b02565b634e487b7160e01b600052603260045260246000fd5b6157418062001bb86000396000f3fe6080604052600436106103805760003560e01c8063698adc83116101d1578063ab4a449411610102578063d196c637116100a0578063e94e64881161006f578063e94e6488146109c8578063f8a5bf4f146109e8578063f8e0658e146109fd578063faae3cc214610a1d57600080fd5b8063d196c6371461095e578063d390e2441461097e578063db81f23614610993578063e2b57683146109a857600080fd5b8063b9fc3057116100dc578063b9fc3057146108f4578063bb09de6714610909578063c4f6c60514610929578063cbaba4221461094957600080fd5b8063ab4a449414610894578063b2cc08f8146108b4578063b959482a146108d457600080fd5b80637a9f5ff01161016f57806398f842881161014957806398f8428814610840578063a336e06314610855578063a72bafb61461086a578063a9018a191461087f57600080fd5b80637a9f5ff0146107eb5780637d1388b5146108005780638056b4b41461082057600080fd5b806371a664f5116101ab57806371a664f51461078e57806372718467146107a157806374829f9d146107b65780637628dd96146107d657600080fd5b8063698adc831461072e5780636a8407fc1461074e578063705258801461076e57600080fd5b8063398ddbe2116102b657806347db423e1161025457806357e54b1b1161022357806357e54b1b146106c45780635f389689146106d9578063603a3191146106f9578063674a53f91461070e57600080fd5b806347db423e1461065a5780634a1b3b9e1461066d57806351f041141461068d57806356e5e8c2146106a257600080fd5b806341720a9c1161029057806341720a9c146105cd57806342b19383146105e2578063432f20a61461060257806345b77e9c1461063a57600080fd5b8063398ddbe2146105835780633fb9043a14610598578063405c1486146105ad57600080fd5b8063266372bb116103235780632d65d33e116102fd5780632d65d33e146104c55780632e11b856146105155780633406665214610535578063340d1ec61461056357600080fd5b8063266372bb1461046e578063278c604c146104835780632903afae146104a557600080fd5b8063067ed2571161035f578063067ed257146103f75780631ea5dd7b14610417578063206e348814610439578063226ee3911461044e57600080fd5b8062e95cc81461038557806303609b46146103b05780630555e387146103c7575b600080fd5b34801561039157600080fd5b5061039a610a32565b6040516103a79190614f30565b60405180910390f35b3480156103bc57600080fd5b506103c5610ae6565b005b3480156103d357600080fd5b506103e76103e2366004614f94565b611113565b60405190151581526020016103a7565b34801561040357600080fd5b506103e7610412366004614f94565b611126565b34801561042357600080fd5b5061042c611132565b6040516103a79190614ffc565b34801561044557600080fd5b5061039a611371565b34801561045a57600080fd5b506103c56104693660046150e3565b611412565b34801561047a57600080fd5b5061039a61194b565b34801561048f57600080fd5b5061049861195a565b6040516103a79190615120565b3480156104b157600080fd5b506103c56104c0366004614f94565b611a33565b3480156104d157600080fd5b506104e56104e03660046151cd565b611a6e565b604080519586526001600160a01b039094166020860152928401919091526060830152608082015260a0016103a7565b34801561052157600080fd5b506103e7610530366004614f94565b611ab9565b34801561054157600080fd5b506105556105503660046151cd565b611ac6565b6040519081526020016103a7565b34801561056f57600080fd5b5061055561057e3660046151cd565b611b8a565b34801561058f57600080fd5b506103c5611bec565b3480156105a457600080fd5b50610498611c92565b3480156105b957600080fd5b506105556105c83660046151cd565b611d5f565b3480156105d957600080fd5b5061039a611e0b565b3480156105ee57600080fd5b506103c56105fd3660046150e3565b611ed6565b34801561060e57600080fd5b5061062261061d3660046151cd565b61216e565b6040516001600160a01b0390911681526020016103a7565b34801561064657600080fd5b506105556106553660046151cd565b61218b565b6103c56106683660046150e3565b6121ed565b34801561067957600080fd5b506105556106883660046151cd565b612766565b34801561069957600080fd5b5061039a6127c8565b3480156106ae57600080fd5b506106b76127d2565b6040516103a791906151e6565b3480156106d057600080fd5b5061049861285d565b3480156106e557600080fd5b506106226106f43660046151cd565b61292a565b34801561070557600080fd5b5061039a612947565b34801561071a57600080fd5b506106226107293660046151cd565b6129f3565b34801561073a57600080fd5b506103c5610749366004614f94565b612a10565b34801561075a57600080fd5b506103e7610769366004614f94565b612a43565b34801561077a57600080fd5b506103c5610789366004615266565b612a50565b6103c561079c36600461531b565b612bba565b3480156107ad57600080fd5b5061042c613078565b3480156107c257600080fd5b506103c56107d1366004615350565b613220565b3480156107e257600080fd5b506103c56134f8565b3480156107f757600080fd5b50610555613b37565b34801561080c57600080fd5b5061055561081b3660046151cd565b613c2d565b34801561082c57600080fd5b506103c561083b366004614f94565b613c8f565b34801561084c57600080fd5b5061039a613cb7565b34801561086157600080fd5b50610555613cc1565b34801561087657600080fd5b5061039a613d89565b34801561088b57600080fd5b50610498613d93565b3480156108a057600080fd5b506103c56108af36600461531b565b613e60565b3480156108c057600080fd5b506106226108cf3660046151cd565b613fe7565b3480156108e057600080fd5b506103c56108ef366004614f94565b614004565b34801561090057600080fd5b50610555614037565b34801561091557600080fd5b506103c561092436600461531b565b6140ff565b34801561093557600080fd5b506105556109443660046151cd565b6143e3565b34801561095557600080fd5b506103c5614433565b34801561096a57600080fd5b506103c561097936600461531b565b6144c0565b34801561098a57600080fd5b5061042c6145fd565b34801561099f57600080fd5b50610555614770565b3480156109b457600080fd5b506105556109c33660046151cd565b614838565b3480156109d457600080fd5b506103c56109e3366004615396565b61489a565b3480156109f457600080fd5b506103c56149f6565b348015610a0957600080fd5b50610555610a183660046151cd565b614ace565b348015610a2957600080fd5b506103c5614b45565b6060600060085467ffffffffffffffff811115610a5157610a51615250565b604051908082528060200260200182016040528015610a7a578160200160208202803683370190505b5090506000805b600854811015610ade57610a968160056153e0565b610aa19060016153f7565b9150610aac82613fe7565b838281518110610abe57610abe61540a565b6001600160a01b0390921660209283029190910190910152600101610a81565b509092915050565b6000610af2600361292a565b6001600160a01b038116600081815260156020908152604080832081516101208101835284815282518084018452600681526544727567204160d01b81860152818501908152601e9382019390935260f660608201526080810186905260a081019590955260c0850184905260e08501849052610100850184905280546001818101835591855292909320845160089093020191825551939450919290820190610b9c90826154ab565b506040828101516002830155606080840151600384015560808401516004840180546001600160a01b039283166001600160a01b03199182161790915560a086015160058601805491841691831691909117905560c08601516006860180549184169190921617905560e085015160079094018054610100909601511515600160a01b026001600160a81b0319909616948216949094179490941790925580516000815260f66020820152928416908301527fe9352c0ffc639c199bee834f01329941ca23f23231a3027778b3a4c59f5e7a1c910160405180910390a16001600160a01b0381166000818152601560209081526040808320815161012081018352600180825283518085018552600681526522393ab3902160d11b818701528286019081526014948301949094526102b460608301526080820187905260a082019690965260c0810185905260e08101859052610100810185905281548087018355918552929093208251600890940201928355519092820190610d2090826154ab565b506040828101516002830155606080840151600384015560808401516004840180546001600160a01b039283166001600160a01b03199182161790915560a086015160058601805491841691831691909117905560c08601516006860180549184169190921617905560e085015160079094018054610100909601511515600160a01b026001600160a81b031990961694821694909417949094179092558051600181526102b46020820152928416908301527fe9352c0ffc639c199bee834f01329941ca23f23231a3027778b3a4c59f5e7a1c910160405180910390a16001600160a01b03811660008181526015602090815260408083208151610120810183526002815282518084018452600681526544727567204360d01b81860152818501908152603c9382019390935261032460608201526080810186905260a081019590955260c0850184905260e085018490526101008501849052805460018181018355918552929093208451600890930201918255519091820190610ea690826154ab565b50604082810151600283810191909155606080850151600385015560808501516004850180546001600160a01b039283166001600160a01b03199182161790915560a087015160058701805491841691831691909117905560c08701516006870180549184169190921617905560e086015160079095018054610100909701511515600160a01b026001600160a81b0319909716958216959095179590951790935581519081526103246020820152928416908301527fe9352c0ffc639c199bee834f01329941ca23f23231a3027778b3a4c59f5e7a1c910160405180910390a16001600160a01b038116600081815260156020908152604080832081516101208101835260038152825180840184526006815265111c9d59c81160d21b81860152818501908152605a9382019390935261030b60608201526080810186905260a081019590955260c0850184905260e08501849052610100850184905280546001818101835591855292909320845160089093020191825551909182019061102f90826154ab565b50604082810151600283015560608084015160038085019190915560808501516004850180546001600160a01b039283166001600160a01b03199182161790915560a087015160058701805491841691831691909117905560c08701516006870180549184169190921617905560e086015160079095018054610100909701511515600160a01b026001600160a81b03199097169582169590951795909517909355815192835261030b6020840152928416908201527fe9352c0ffc639c199bee834f01329941ca23f23231a3027778b3a4c59f5e7a1c910160405180910390a150565b6000611120600483614bda565b92915050565b60006111208183614bda565b606061113d33611ab9565b61118e5760405162461bcd60e51b815260206004820152601c60248201527f4e6f7420612057686f6c6573616c65204469737472696275746f72210000000060448201526064015b60405180910390fd5b336000908152601460205260408120805482906111ad576111ad61540a565b90600052602060002090600802016003015490506111ff6040518060400160405280601b81526020017f726574726965766520696e76656e746f72792077642066726f6e740000000000815250614c12565b61120881614c71565b33600090815260146020908152604080832080548251818502810185019093528083529193909284015b828210156113675783829060005260206000209060080201604051806101200160405290816000820154815260200160018201805461127090615420565b80601f016020809104026020016040519081016040528092919081815260200182805461129c90615420565b80156112e95780601f106112be576101008083540402835291602001916112e9565b820191906000526020600020905b8154815290600101906020018083116112cc57829003601f168201915b505050918352505060028201546020808301919091526003830154604083015260048301546001600160a01b0390811660608401526005840154811660808401526006840154811660a084015260079093015492831660c0830152600160a01b90920460ff16151560e0909101529082526001929092019101611232565b5050505091505090565b6060600060025467ffffffffffffffff81111561139057611390615250565b6040519080825280602002602001820160405280156113b9578160200160208202803683370190505b5090506000805b600254811015610ade576113d58160056153e0565b91506113e08261216e565b8382815181106113f2576113f261540a565b6001600160a01b03909216602092830291909101909101526001016113c0565b61141b33611ab9565b6114675760405162461bcd60e51b815260206004820152601c60248201527f4e6f7420612057686f6c6573616c65204469737472696275746f7221000000006044820152606401611185565b61147084614c71565b61147983614c71565b61148282614ccf565b61148b81614c71565b600061149685611ac6565b905060006114a38361218b565b33600090815260146020526040812080549293509091849081106114c9576114c961540a565b6000918252602080832033845260149091526040832080546008909302909101935090859081106114fc576114fc61540a565b906000526020600020906008020160030154905061151981614c71565b3360009081526014602052604090205484036115775760405162461bcd60e51b815260206004820181905260248201527f54686572652773206e6f206472756720776974682074686520647275672069646044820152606401611185565b33600090815260146020526040902080548891908690811061159b5761159b61540a565b906000526020600020906008020160030154101561160e5760405162461bcd60e51b815260206004820152602a60248201527f4e6f7420656e6f7567682064727567207175616e7469747920696e207468652060448201526934b73b32b73a37b93c9760b11b6064820152608401611185565b6000888152600d6020526040812060038401805491928a9261163190849061556b565b909155505033600090815260146020526040902080548491908790811061165a5761165a61540a565b6000918252602090912082546008909202019081556001808201906116819084018261557e565b50600282810154908201556003808301549082015560048083015490820180546001600160a01b03199081166001600160a01b0393841617909155600580850154908401805483169184169190911790556006808501549084018054831691841691909117905560079384018054949093018054918216949092169384178255915460ff600160a01b91829004161515026001600160a81b03199092169092171790553360009081526014602052604090208054869081106117455761174561540a565b9060005260206000209060080201600301546000036117ac573360009081526014602052604090208054600191908b9081106117835761178361540a565b906000526020600020906008020160070160146101000a81548160ff0219169083151502179055505b60006117b787613c2d565b336000908152600f602052604090208054919250600191839081106117de576117de61540a565b600091825260208083206007600890930201919091018054931515600160a01b0260ff60a01b199094169390931790925533815260149091526040902080548790811061182d5761182d61540a565b906000526020600020906008020160050160009054906101000a90046001600160a01b0316600e60008a6001600160a01b03166001600160a01b0316815260200190815260200160002086815481106118885761188861540a565b6000918252602080832060089290920290910160070180546001600160a01b0319166001600160a01b039490941693909317909255338152601490915260408120805482906118d9576118d961540a565b90600052602060002090600802016003015490506118f681614c71565b604080518c8152602081018c90526001600160a01b038b168183015290517f4782ed3e21cd4ea7e362929fd379c86f4851bec9a2b4ab4b9149581947fe47aa9181900360600190a15050505050505050505050565b6060611955611371565b905090565b336000908152601160209081526040808320805482518185028101850190935280835260609492939192909184015b82821015611a2a5760008481526020908190206040805161012081018252600886029092018054835260018082015484860152600282015492840192909252600381015460608401526004810154608084015260058101546001600160a01b0390811660a08501526006820154811660c085015260079091015490811660e0840152600160a01b900460ff1615156101008301529083529092019101611989565b50505050905090565b611a56816003546005611a4691906153e0565b611a519060036153f7565b614d30565b60038054906000611a6683615659565b919050555050565b60128181548110611a7e57600080fd5b6000918252602090912060059091020180546001820154600283015460038401546004909401549294506001600160a01b0390911692909185565b6000611120600683614bda565b6000611ad133611ab9565b611b1d5760405162461bcd60e51b815260206004820152601c60248201527f4e6f7420612057686f6c6573616c65204469737472696275746f7221000000006044820152606401611185565b336000908152601460205260408120549081905b82811015611b8057336000908152601460205260409020805486919083908110611b5d57611b5d61540a565b90600052602060002090600802016000015403611b78578091505b600101611b31565b509150505b919050565b336000908152600e602052604081205480825b82811015611b8057336000908152600e60205260409020805486919083908110611bc957611bc961540a565b90600052602060002090600802016000015403611be4578091505b600101611b9d565b611c156040518060400160405280600681526020016544727567204160d01b815250601e612a50565b611c3e6040518060400160405280600681526020016522393ab3902160d11b8152506014612a50565b611c676040518060400160405280600681526020016544727567204360d01b815250603c612a50565b611c9060405180604001604052806006815260200165111c9d59c81160d21b815250605a612a50565b565b336000908152600e60209081526040808320805482518185028101850190935280835260609492939192909184018215611a2a5760008481526020908190206040805161012081018252600886029092018054835260018082015484860152600282015492840192909252600381015460608401526004810154608084015260058101546001600160a01b0390811660a08501526006820154811660c085015260079091015490811660e0840152600160a01b900460ff1615156101008301529083529092019101611989565b6000611d6a33611126565b611da85760405162461bcd60e51b815260206004820152600f60248201526e4e6f74206120506861726d6163792160881b6044820152606401611185565b336000908152601360205260408120549081905b82811015611b8057336000908152601360205260409020805486919083908110611de857611de861540a565b90600052602060002090600802016000015403611e03578091505b600101611dbc565b6060600060035467ffffffffffffffff811115611e2a57611e2a615250565b604051908082528060200260200182016040528015611e53578160200160208202803683370190505b5090506000805b600354811015610ade57611e6f8160056153e0565b611e7a9060036153f7565b9150611e858261292a565b838281518110611e9757611e9761540a565b60200260200101906001600160a01b031690816001600160a01b0316815250506000611ec28361292a565b9050611ecd81614ccf565b50600101611e5a565b611edf33611113565b611ee857600080fd5b6000611ef385614ace565b336000908152601560205260409020549091508103611f545760405162461bcd60e51b815260206004820181905260248201527f54686572652773206e6f206472756720776974682074686520647275672069646044820152606401611185565b336000908152601560205260409020805485919083908110611f7857611f7861540a565b9060005260206000209060080201600301541015611feb5760405162461bcd60e51b815260206004820152602a60248201527f4e6f7420656e6f7567682064727567207175616e7469747920696e207468652060448201526934b73b32b73a37b93c9760b11b6064820152608401611185565b33600090815260156020526040902080548591908390811061200f5761200f61540a565b9060005260206000209060080201600301600082825461202f919061556b565b90915550503360009081526015602052604090208054829081106120555761205561540a565b9060005260206000209060080201600301546000036120bc57336000908152601460205260409020805460019190879081106120935761209361540a565b906000526020600020906008020160070160146101000a81548160ff0219169083151502179055505b60006120c783614838565b3360009081526011602052604090208054919250600191839081106120ee576120ee61540a565b60009182526020918290206007600890920201018054921515600160a01b0260ff60a01b1990931692909217909155604080518881529182018790526001600160a01b038616908201527f1c29d9b0506c4dc061e05cd7c9ac4d58d45b3d6e8b79717042bf9e53a07d44ae906060015b60405180910390a1505050505050565b6000818152602081905260408120546001600160a01b0316611120565b336000908152600e602052604081205480825b82811015611b8057336000908152600e602052604090208054869190839081106121ca576121ca61540a565b906000526020600020906008020160000154036121e5578091505b60010161219e565b6121f633611126565b6122345760405162461bcd60e51b815260206004820152600f60248201526e4e6f74206120506861726d6163792160881b6044820152606401611185565b60006012612241836143e3565b815481106122515761225161540a565b90600052602060002090600502016002015490508481146122da5760405162461bcd60e51b815260206004820152602d60248201527f5468697320646973636f756e742063616e6e6f74206265206170706c6965642060448201527f746f207468697320647275672e000000000000000000000000000000000000006064820152608401611185565b6122e334614c71565b60008460126122f1856143e3565b815481106123015761230161540a565b906000526020600020906005020160030154600d600089815260200190815260200160002060020154612334919061556b565b61233e91906153e0565b905083348211156123915760405162461bcd60e51b815260206004820152601260248201527f496e73756666696369656e742066756e642e00000000000000000000000000006044820152606401611185565b600061239f6103e842615672565b856123aa898b6153f7565b6123b491906153f7565b6123be91906153f7565b9050600e6000336001600160a01b03166001600160a01b031681526020019081526020016000206040518061012001604052808381526020018a8152602001898152602001858152602001878152602001336001600160a01b03168152602001846001600160a01b0316815260200160006001600160a01b03168152602001600015158152509080600181540180825580915050600190039060005260206000209060080201600090919091909150600082015181600001556020820151816001015560408201518160020155606082015181600301556080820151816004015560a08201518160050160006101000a8154816001600160a01b0302191690836001600160a01b0316021790555060c08201518160060160006101000a8154816001600160a01b0302191690836001600160a01b0316021790555060e08201518160070160006101000a8154816001600160a01b0302191690836001600160a01b031602179055506101008201518160070160146101000a81548160ff0219169083151502179055505050600f6000836001600160a01b03166001600160a01b031681526020019081526020016000206040518061012001604052808381526020018a8152602001898152602001858152602001878152602001336001600160a01b03168152602001846001600160a01b0316815260200160006001600160a01b03168152602001600015158152509080600181540180825580915050600190039060005260206000209060080201600090919091909150600082015181600001556020820151816001015560408201518160020155606082015181600301556080820151816004015560a08201518160050160006101000a8154816001600160a01b0302191690836001600160a01b0316021790555060c08201518160060160006101000a8154816001600160a01b0302191690836001600160a01b0316021790555060e08201518160070160006101000a8154816001600160a01b0302191690836001600160a01b031602179055506101008201518160070160146101000a81548160ff0219169083151502179055505050816001600160a01b03166108fc849081150290604051600060405180830381858888f1935050505015801561270b573d6000803e3d6000fd5b5060408051898152602081018990529081018490526001600160a01b03871660608201527f64535bd33b640ec7d8a9dcfc8de975843151d9065abdcb0a65b8f4c81f2108c39060800160405180910390a15050505050505050565b3360009081526010602052604081205480825b82811015611b80573360009081526010602052604090208054869190839081106127a5576127a561540a565b906000526020600020906008020160000154036127c0578091505b600101612779565b6060611955612947565b60606012805480602002602001604051908101604052809291908181526020016000905b82821015611a2a5760008481526020908190206040805160a08101825260058602909201805483526001808201546001600160a01b0316848601526002820154928401929092526003810154606084015260040154608083015290835290920191016127f6565b336000908152601060209081526040808320805482518185028101850190935280835260609492939192909184018215611a2a5760008481526020908190206040805161012081018252600886029092018054835260018082015484860152600282015492840192909252600381015460608401526004810154608084015260058101546001600160a01b0390811660a08501526006820154811660c085015260079091015490811660e0840152600160a01b900460ff1615156101008301529083529092019101611989565b6000818152600460205260408120546001600160a01b0316611120565b60606000600b5467ffffffffffffffff81111561296657612966615250565b60405190808252806020026020018201604052801561298f578160200160208202803683370190505b5090506000805b600b54811015610ade576129ab8160056153e0565b6129b69060026153f7565b91506129c1826129f3565b8382815181106129d3576129d361540a565b6001600160a01b0390921660209283029190910190910152600101612996565b6000818152600960205260408120546001600160a01b0316611120565b612a3381600b546005612a2391906153e0565b612a2e9060026153f7565b614d74565b600b8054906000611a6683615659565b6000611120600983614bda565b601680546040805161012081018252828152602081018690529081018490526000606082018190526080820181905260a0820181905260c0820181905260e08201819052610100820181905291929091600d91849082612aaf83615659565b90915550815260208082019290925260400160002082518155908201516001820190612adb90826154ab565b5060408281015160028301556060830151600383015560808301516004830180546001600160a01b039283166001600160a01b03199182161790915560a085015160058501805491841691831691909117905560c08501516006850180549184169190921617905560e084015160079093018054610100909501511515600160a01b026001600160a81b03199095169390911692909217929092179055517f5b5755b262b850b85821421089fb7b9f0989af8fbdbb918ac09d7dd30087d21290612bad90839086906000908790615694565b60405180910390a1505050565b612bc333611ab9565b612c0f5760405162461bcd60e51b815260206004820152601c60248201527f4e6f7420612057686f6c6573616c65204469737472696275746f7221000000006044820152606401611185565b6000838152600d6020526040812060020154612c2c9084906153e0565b90508134821115612c7f5760405162461bcd60e51b815260206004820152601260248201527f496e73756666696369656e742066756e642e00000000000000000000000000006044820152606401611185565b6000612c8d6103e842615672565b612c9786886153f7565b612ca191906153f7565b905060106000336001600160a01b03166001600160a01b0316815260200190815260200160002060405180610120016040528083815260200188815260200187815260200185815260200160008152602001336001600160a01b03168152602001846001600160a01b03168152602001846001600160a01b03168152602001600015158152509080600181540180825580915050600190039060005260206000209060080201600090919091909150600082015181600001556020820151816001015560408201518160020155606082015181600301556080820151816004015560a08201518160050160006101000a8154816001600160a01b0302191690836001600160a01b0316021790555060c08201518160060160006101000a8154816001600160a01b0302191690836001600160a01b0316021790555060e08201518160070160006101000a8154816001600160a01b0302191690836001600160a01b031602179055506101008201518160070160146101000a81548160ff021916908315150217905550505060116000836001600160a01b03166001600160a01b0316815260200190815260200160002060405180610120016040528083815260200188815260200187815260200185815260200160008152602001336001600160a01b03168152602001846001600160a01b03168152602001846001600160a01b03168152602001600015158152509080600181540180825580915050600190039060005260206000209060080201600090919091909150600082015181600001556020820151816001015560408201518160020155606082015181600301556080820151816004015560a08201518160050160006101000a8154816001600160a01b0302191690836001600160a01b0316021790555060c08201518160060160006101000a8154816001600160a01b0302191690836001600160a01b0316021790555060e08201518160070160006101000a8154816001600160a01b0302191690836001600160a01b031602179055506101008201518160070160146101000a81548160ff0219169083151502179055505050612ff46040518060400160405280601381526020017f416464656420746f204d4120526571756573740000000000000000000000000081525082614db8565b6040516001600160a01b0383169084156108fc029085906000818181858888f1935050505015801561302a573d6000803e3d6000fd5b5060408051878152602081018790529081018490526001600160a01b03831660608201527fedf4c9eefd79f90793775b9ebfd1c04f18901840d18b5c6ec38556fde4a5b3129060800161215e565b606061308333611126565b6130c15760405162461bcd60e51b815260206004820152600f60248201526e4e6f74206120506861726d6163792160881b6044820152606401611185565b33600090815260136020908152604080832080548251818502810185019093528083529193909284015b82821015611a2a5783829060005260206000209060080201604051806101200160405290816000820154815260200160018201805461312990615420565b80601f016020809104026020016040519081016040528092919081815260200182805461315590615420565b80156131a25780601f10613177576101008083540402835291602001916131a2565b820191906000526020600020905b81548152906001019060200180831161318557829003601f168201915b505050918352505060028201546020808301919091526003830154604083015260048301546001600160a01b0390811660608401526005840154811660808401526006840154811660a084015260079093015492831660c0830152600160a01b90920460ff16151560e09091015290825260019290920191016130eb565b61322933611126565b6132675760405162461bcd60e51b815260206004820152600f60248201526e4e6f74206120506861726d6163792160881b6044820152606401611185565b600061327285611d5f565b33600090815260136020526040902054909150810361346357336000908152601360209081526040808320815161012081018352898152898552600d845291909320600101805491928301916132c790615420565b80601f01602080910402602001604051908101604052809291908181526020018280546132f390615420565b80156133405780601f1061331557610100808354040283529160200191613340565b820191906000526020600020905b81548152906001019060200180831161332357829003601f168201915b50505091835250506000888152600d602090815260408083206002015482850152830189905233606084018190526001600160a01b038881166080860152891660a085015260c084015260e09092018190528354600181810186559482529082902083516008909202019081559082015191929091908201906133c390826154ab565b50604082015160028201556060820151600382015560808201516004820180546001600160a01b03199081166001600160a01b039384161790915560a0840151600584018054831691841691909117905560c084015160068401805490921690831617905560e08301516007909201805461010090940151929091166001600160a81b031990931692909217600160a01b911515919091021790556134ad565b3360009081526013602052604090208054859190839081106134875761348761540a565b906000526020600020906008020160030160008282546134a791906153f7565b90915550505b604080518681526020810186905233918101919091527f01fd8585134bd20524c063b363e68b00637654b3b8f14c0d45f8bb068faf3b34906060015b60405180910390a15050505050565b60006135046001613fe7565b90506000613512600361292a565b6001600160a01b03808416600081815260146020908152604080832081516101208101835284815282518084018452600681526544727567204160d01b81860152818501908152601e93820193909352606660608201526080810186905295871660a087015260c086019490945260e08501839052610100850183905283546001818101865594845291909220845160089092020190815590519394509192908201906135bf90826154ab565b506040828101516002830155606080840151600384015560808401516004840180546001600160a01b039283166001600160a01b03199182161790915560a086015160058601805491841691831691909117905560c08601516006860180549184169190921617905560e085015160079094018054610100909601511515600160a01b026001600160a81b0319909616948216949094179490941790925580516000815260666020820152928516908301527faa0ccf70c1ed5f098a1e53c6f9e75b32cb44b86100ea455244060e153b36f051910160405180910390a16001600160a01b038083166000818152601460208181526040808420815161012081018352600180825283518085018552600681526522393ab3902160d11b8187015282860190815293820195909552603c60608201526080810187905296881660a088015260c087019590955260e086018490526101008601849052845480840186559484529220845160089094020192835590519082019061374090826154ab565b506040828101516002830155606080840151600384015560808401516004840180546001600160a01b039283166001600160a01b03199182161790915560a086015160058601805491841691831691909117905560c08601516006860180549184169190921617905560e085015160079094018054610100909601511515600160a01b026001600160a81b03199096169482169490941794909417909255805160018152603c6020820152928516908301527faa0ccf70c1ed5f098a1e53c6f9e75b32cb44b86100ea455244060e153b36f051910160405180910390a16001600160a01b0380831660008181526014602081815260408084208151610120810183526002815282518084018452600681526544727567204360d01b81860152818501908152603c9382019390935260608101949094526080840186905295871660a084015260c083019490945260e08201839052610100820183905284546001818101875595845292208151600890930201918255915191929091908201906138c990826154ab565b50604082810151600283810191909155606080850151600385015560808501516004850180546001600160a01b039283166001600160a01b03199182161790915560a087015160058701805491841691831691909117905560c08701516006870180549184169190921617905560e086015160079095018054610100909701511515600160a01b026001600160a81b03199097169582169590951795909517909355815190815260146020820152928516908301527faa0ccf70c1ed5f098a1e53c6f9e75b32cb44b86100ea455244060e153b36f051910160405180910390a16001600160a01b03808316600081815260146020908152604080832081516101208101835260038152825180840184526006815265111c9d59c81160d21b81860152818501908152605a93820193909352600f60608201526080810186905295871660a087015260c086019490945260e08501839052610100850183905283546001818101865594845291909220845160089092020190815590519091820190613a5390826154ab565b50604082810151600283015560608084015160038085019190915560808501516004850180546001600160a01b039283166001600160a01b03199182161790915560a087015160058701805491841691831691909117905560c08701516006870180549184169190921617905560e086015160079095018054610100909701511515600160a01b026001600160a81b031990971695821695909517959095179093558151928352600f6020840152928516908201527faa0ccf70c1ed5f098a1e53c6f9e75b32cb44b86100ea455244060e153b36f051910160405180910390a15050565b336000908152600e6020908152604080832080548251818502810185019093528083528493849084015b82821015613c025760008481526020908190206040805161012081018252600886029092018054835260018082015484860152600282015492840192909252600381015460608401526004810154608084015260058101546001600160a01b0390811660a08501526006820154811660c085015260079091015490811660e0840152600160a01b900460ff1615156101008301529083529092019101613b61565b50505050905080600081518110613c1b57613c1b61540a565b60200260200101516000015191505090565b336000908152600f602052604081205480825b82811015611b8057336000908152600f60205260409020805486919083908110613c6c57613c6c61540a565b90600052602060002090600802016000015403613c87578091505b600101613c40565b613ca7816002546005613ca291906153e0565b614e1a565b60028054906000611a6683615659565b6060611955611e0b565b336000908152600f6020908152604080832080548251818502810185019093528083528493849084018215613c025760008481526020908190206040805161012081018252600886029092018054835260018082015484860152600282015492840192909252600381015460608401526004810154608084015260058101546001600160a01b0390811660a08501526006820154811660c085015260079091015490811660e0840152600160a01b900460ff1615156101008301529083529092019101613b61565b6060611955610a32565b336000908152600f60209081526040808320805482518185028101850190935280835260609492939192909184018215611a2a5760008481526020908190206040805161012081018252600886029092018054835260018082015484860152600282015492840192909252600381015460608401526004810154608084015260058101546001600160a01b0390811660a08501526006820154811660c085015260079091015490811660e0840152600160a01b900460ff1615156101008301529083529092019101611989565b613e6933611126565b613ea75760405162461bcd60e51b815260206004820152600f60248201526e4e6f74206120506861726d6163792160881b6044820152606401611185565b6000613eb28461218b565b336000908152600e60205260409020805491925060019183908110613ed957613ed961540a565b600091825260208083206007600890930201919091018054931515600160a01b0260ff60a01b1990941693909317909255338152600e90915260408120805483908110613f2857613f2861540a565b90600052602060002090600802016001015490506000600e6000336001600160a01b03166001600160a01b031681526020019081526020016000208381548110613f7457613f7461540a565b60009182526020909120600760089092020101546001600160a01b03169050613f9f82868684613220565b604080518781523360208201526001600160a01b038616918101919091527fb76c4f40d064c72d18b0ddeaba1d885b054f208ac1984f07c3a2c3ddda8ba6a89060600161215e565b6000818152600660205260408120546001600160a01b0316611120565b61402781600854600561401791906153e0565b6140229060016153f7565b614e6d565b60088054906000611a6683615659565b33600090815260116020908152604080832080548251818502810185019093528083528493849084018215613c025760008481526020908190206040805161012081018252600886029092018054835260018082015484860152600282015492840192909252600381015460608401526004810154608084015260058101546001600160a01b0390811660a08501526006820154811660c085015260079091015490811660e0840152600160a01b900460ff1615156101008301529083529092019101613b61565b61410833611ab9565b6141545760405162461bcd60e51b815260206004820152601c60248201527f4e6f7420612057686f6c6573616c65204469737472696275746f7221000000006044820152606401611185565b600061415f84611ac6565b33600090815260146020526040902054909150810361434f57336000908152601460209081526040808320815161012081018352888152888552600d845291909320600101805491928301916141b490615420565b80601f01602080910402602001604051908101604052809291908181526020018280546141e090615420565b801561422d5780601f106142025761010080835404028352916020019161422d565b820191906000526020600020905b81548152906001019060200180831161421057829003601f168201915b50505091835250506000878152600d602090815260408083206002015482850152830188905233606084018190526001600160a01b038816608085015260a084015260c0830182905260e09092018190528354600181810186559482529082902083516008909202019081559082015191929091908201906142af90826154ab565b50604082015160028201556060820151600382015560808201516004820180546001600160a01b03199081166001600160a01b039384161790915560a0840151600584018054831691841691909117905560c084015160068401805490921690831617905560e08301516007909201805461010090940151929091166001600160a81b031990931692909217600160a01b91151591909102179055614399565b3360009081526014602052604090208054849190839081106143735761437361540a565b9060005260206000209060080201600301600082825461439391906153f7565b90915550505b604080518581526020810185905233918101919091527faa0ccf70c1ed5f098a1e53c6f9e75b32cb44b86100ea455244060e153b36f051906060015b60405180910390a150505050565b601254600090815b60125481101561442c5783601282815481106144095761440961540a565b90600052602060002090600502016000015403614424578091505b6001016143eb565b5092915050565b614456606560036000733c44cdddb6a900fa2b585dd299e03d12fa4293bc61489a565b61447860ca600180733c44cdddb6a900fa2b585dd299e03d12fa4293bc61489a565b61449c61012f60066002733c44cdddb6a900fa2b585dd299e03d12fa4293bc61489a565b611c9061019460076003733c44cdddb6a900fa2b585dd299e03d12fa4293bc61489a565b6144c933611ab9565b6145155760405162461bcd60e51b815260206004820152601c60248201527f4e6f7420612057686f6c6573616c65204469737472696275746f7221000000006044820152606401611185565b600061452084612766565b3360009081526010602052604090208054919250600191839081106145475761454761540a565b600091825260208083206007600890930201919091018054931515600160a01b0260ff60a01b19909416939093179092553381526010909152604081208054839081106145965761459661540a565b90600052602060002090600802016001015490506145b58185856140ff565b604080518681523360208201526001600160a01b038516918101919091527f5af374314ea3183a08c7cd604ecdc82cab7d22cdc44172fbd1c702c5ab4aaa82906060016134e9565b606061460833611113565b61461157600080fd5b33600090815260156020908152604080832080548251818502810185019093528083529193909284015b82821015611a2a5783829060005260206000209060080201604051806101200160405290816000820154815260200160018201805461467990615420565b80601f01602080910402602001604051908101604052809291908181526020018280546146a590615420565b80156146f25780601f106146c7576101008083540402835291602001916146f2565b820191906000526020600020905b8154815290600101906020018083116146d557829003601f168201915b505050918352505060028201546020808301919091526003830154604083015260048301546001600160a01b0390811660608401526005840154811660808401526006840154811660a084015260079093015492831660c0830152600160a01b90920460ff16151560e090910152908252600192909201910161463b565b33600090815260106020908152604080832080548251818502810185019093528083528493849084018215613c025760008481526020908190206040805161012081018252600886029092018054835260018082015484860152600282015492840192909252600381015460608401526004810154608084015260058101546001600160a01b0390811660a08501526006820154811660c085015260079091015490811660e0840152600160a01b900460ff1615156101008301529083529092019101613b61565b3360009081526011602052604081205480825b82811015611b80573360009081526011602052604090208054869190839081106148775761487761540a565b90600052602060002090600802016000015403614892578091505b60010161484b565b6040805160a0810182528581526001600160a01b03838116602080840191825283850187815260608086018a815242608088019081526012805460018101825560009190915297517fbb8a6a4669ba250d26cd7a459eca9d215f8307e33aebe50379bc5a3617ec344460059099029889015594517fbb8a6a4669ba250d26cd7a459eca9d215f8307e33aebe50379bc5a3617ec3445880180546001600160a01b031916919097161790955590517fbb8a6a4669ba250d26cd7a459eca9d215f8307e33aebe50379bc5a3617ec344686015592517fbb8a6a4669ba250d26cd7a459eca9d215f8307e33aebe50379bc5a3617ec344785015590517fbb8a6a4669ba250d26cd7a459eca9d215f8307e33aebe50379bc5a3617ec344890930192909255825187815291820185905233928201929092527ff46e3888ab01efac692e1fd05a80154671dd88da2bd40bd258466857b2c8c3d491016143d5565b614a2c6000600a7370997970c51812dc3a010c7d01b50e0d17dc79c87390f79bf6eb2c4f870365e785982e1f101e93b906613220565b614a62600160057370997970c51812dc3a010c7d01b50e0d17dc79c87390f79bf6eb2c4f870365e785982e1f101e93b906613220565b614a986002601e7370997970c51812dc3a010c7d01b50e0d17dc79c87390f79bf6eb2c4f870365e785982e1f101e93b906613220565b611c90600360287370997970c51812dc3a010c7d01b50e0d17dc79c87390f79bf6eb2c4f870365e785982e1f101e93b906613220565b6000614ad933611113565b614ae257600080fd5b336000908152601560205260408120549081905b82811015611b8057336000908152601560205260409020805486919083908110614b2257614b2261540a565b90600052602060002090600802016000015403614b3d578091505b600101614af6565b614b6273f39fd6e51aad88f6f4ce6ab8827279cfffb92266613c8f565b614b7f7370997970c51812dc3a010c7d01b50e0d17dc79c8614004565b614b9c733c44cdddb6a900fa2b585dd299e03d12fa4293bc612a10565b611c907390f79bf6eb2c4f870365e785982e1f101e93b906611a33565b60006a636f6e736f6c652e6c6f679050600080835160208501845afa505050565b60006001600160a01b038216614bef57600080fd5b506001600160a01b03166000908152600191909101602052604090205460ff1690565b614c6e81604051602401614c2691906156c0565b60408051601f198184030181529190526020810180516001600160e01b03167f41304fac00000000000000000000000000000000000000000000000000000000179052614eb4565b50565b614c6e81604051602401614c8791815260200190565b60408051601f198184030181529190526020810180516001600160e01b03167ff82c50f100000000000000000000000000000000000000000000000000000000179052614eb4565b6040516001600160a01b0382166024820152614c6e9060440160408051601f198184030181529190526020810180516001600160e01b03167f2c2ecbc200000000000000000000000000000000000000000000000000000000179052614eb4565b614d3c60048383614ebd565b6040516001600160a01b038316907f1b75342144357c1041167b44af1fb2fb1922a55e78798a1d0bffae81ae56952290600090a25050565b614d8060098383614ebd565b6040516001600160a01b038316907fd9ca880bfd1de8a3f1e9b43db37e2f153997e67347efe3c29ee2938ecf53568190600090a25050565b614e168282604051602401614dce9291906156d3565b60408051601f198184030181529190526020810180516001600160e01b03167fb60e72cc00000000000000000000000000000000000000000000000000000000179052614eb4565b5050565b614e2660008383614ebd565b816001600160a01b03167f208939ccf3c0b1e4d56ede20000b38c0154e92a4137f57f8f75c6568488c4a3a82604051614e6191815260200190565b60405180910390a25050565b614e7960068383614ebd565b816001600160a01b03167fa979e61f070c3dcad6f4ad6e371f80e4647f338cf5e8bb3c517ec5cd52d90e8282604051614e6191815260200190565b614c6e81614bb9565b6001600160a01b038216614ed057600080fd5b614eda8383614bda565b15614ee457600080fd5b60009081526020838152604080832080546001600160a01b039095166001600160a01b0319909516851790559282526001938401905220805460ff19169091179055565b611c906156f5565b6020808252825182820181905260009190848201906040850190845b81811015614f715783516001600160a01b031683529284019291840191600101614f4c565b50909695505050505050565b80356001600160a01b0381168114611b8557600080fd5b600060208284031215614fa657600080fd5b614faf82614f7d565b9392505050565b6000815180845260005b81811015614fdc57602081850181015186830182015201614fc0565b506000602082860101526020601f19601f83011685010191505092915050565b600060208083018184528085518083526040925060408601915060408160051b87010184880160005b838110156150d557603f1989840301855281516101208151855288820151818a87015261505482870182614fb6565b91505087820151888601526060808301518187015250608080830151615084828801826001600160a01b03169052565b505060a0828101516001600160a01b039081169187019190915260c08084015182169087015260e0808401519091169086015261010091820151151591909401529386019390860190600101615025565b509098975050505050505050565b600080600080608085870312156150f957600080fd5b843593506020850135925061511060408601614f7d565b9396929550929360600135925050565b602080825282518282018190526000919060409081850190868401855b828110156151c05781518051855286810151878601528581015186860152606080820151908601526080808201519086015260a0808201516001600160a01b039081169187019190915260c08083015182169087015260e0808301519091169086015261010090810151151590850152610120909301929085019060010161513d565b5091979650505050505050565b6000602082840312156151df57600080fd5b5035919050565b602080825282518282018190526000919060409081850190868401855b828110156151c057815180518552868101516001600160a01b0316878601528581015186860152606080820151908601526080908101519085015260a09093019290850190600101615203565b634e487b7160e01b600052604160045260246000fd5b6000806040838503121561527957600080fd5b823567ffffffffffffffff8082111561529157600080fd5b818501915085601f8301126152a557600080fd5b8135818111156152b7576152b7615250565b604051601f8201601f19908116603f011681019083821181831017156152df576152df615250565b816040528281528860208487010111156152f857600080fd5b826020860160208301376000602093820184015298969091013596505050505050565b60008060006060848603121561533057600080fd5b833592506020840135915061534760408501614f7d565b90509250925092565b6000806000806080858703121561536657600080fd5b843593506020850135925061537d60408601614f7d565b915061538b60608601614f7d565b905092959194509250565b600080600080608085870312156153ac57600080fd5b84359350602085013592506040850135915061538b60608601614f7d565b634e487b7160e01b600052601160045260246000fd5b8082028115828204841417611120576111206153ca565b80820180821115611120576111206153ca565b634e487b7160e01b600052603260045260246000fd5b600181811c9082168061543457607f821691505b60208210810361545457634e487b7160e01b600052602260045260246000fd5b50919050565b601f8211156154a6576000816000526020600020601f850160051c810160208610156154835750805b601f850160051c820191505b818110156154a25782815560010161548f565b5050505b505050565b815167ffffffffffffffff8111156154c5576154c5615250565b6154d9816154d38454615420565b8461545a565b602080601f83116001811461550e57600084156154f65750858301515b600019600386901b1c1916600185901b1785556154a2565b600085815260208120601f198616915b8281101561553d5788860151825594840194600190910190840161551e565b508582101561555b5787850151600019600388901b60f8161c191681555b5050505050600190811b01905550565b81810381811115611120576111206153ca565b818103615589575050565b6155938254615420565b67ffffffffffffffff8111156155ab576155ab615250565b6155b9816154d38454615420565b6000601f8211600181146155ed57600083156155d55750848201545b600019600385901b1c1916600184901b178455615652565b600085815260209020601f19841690600086815260209020845b838110156156275782860154825560019586019590910190602001615607565b50858310156156455781850154600019600388901b60f8161c191681555b50505060018360011b0184555b5050505050565b60006001820161566b5761566b6153ca565b5060010190565b60008261568f57634e487b7160e01b600052601260045260246000fd5b500690565b8481526080602082015260006156ad6080830186614fb6565b6040830194909452506060015292915050565b602081526000614faf6020830184614fb6565b6040815260006156e66040830185614fb6565b90508260208301529392505050565b634e487b7160e01b600052605160045260246000fdfea2646970667358221220bfc603a7fd59f989b7d2c7df3a3e12d55c338502574271407f0b7f10ac10d7a764736f6c6343000818003300000000000000000000000090f79bf6eb2c4f870365e785982e1f101e93b90600000000000000000000000070997970c51812dc3a010c7d01b50e0d17dc79c8aa0ccf70c1ed5f098a1e53c6f9e75b32cb44b86100ea455244060e153b36f051e9352c0ffc639c199bee834f01329941ca23f23231a3027778b3a4c59f5e7a1c",
  "linkReferences": {},
  "deployedLinkReferences": {}
}