{
  "_format": "hh-sol-artifact-1",
  "contractName": "Manufacturer",
  "sourceName": "contracts/Roles/Manufacturer.sol",
  "abi": [
    {
      "inputs": [],
      "stateMutability": "nonpayable",
      "type": "constructor"
    },
    {
      "anonymous": false,
      "inputs": [
        {
          "indexed": true,
          "internalType": "address",
          "name": "account",
          "type": "address"
        }
      ],
      "name": "MAAdded",
      "type": "event"
    },
    {
      "anonymous": false,
      "inputs": [
        {
          "indexed": true,
          "internalType": "address",
          "name": "account",
          "type": "address"
        }
      ],
      "name": "MARemoved",
      "type": "event"
    },
    {
      "inputs": [
        {
          "internalType": "address",
          "name": "account",
          "type": "address"
        }
      ],
      "name": "addThisAsMA",
      "outputs": [],
      "stateMutability": "nonpayable",
      "type": "function"
    },
    {
      "inputs": [
        {
          "internalType": "uint256",
          "name": "accNumber",
          "type": "uint256"
        }
      ],
      "name": "getMAaddr",
      "outputs": [
        {
          "internalType": "address",
          "name": "",
          "type": "address"
        }
      ],
      "stateMutability": "view",
      "type": "function"
    },
    {
      "inputs": [
        {
          "internalType": "address",
          "name": "account",
          "type": "address"
        }
      ],
      "name": "isMA",
      "outputs": [
        {
          "internalType": "bool",
          "name": "",
          "type": "bool"
        }
      ],
      "stateMutability": "view",
      "type": "function"
    },
    {
      "inputs": [],
      "name": "showAllMA",
      "outputs": [],
      "stateMutability": "view",
      "type": "function"
    }
  ],
  "bytecode": "0x608060405234801561001057600080fd5b50600080819055506108c9806100276000396000f3fe608060405234801561001057600080fd5b506004361061004c5760003560e01c80630555e387146100515780632903afae1461008157806341720a9c1461009d5780635f389689146100a7575b600080fd5b61006b60048036038101906100669190610595565b6100d7565b60405161007891906105dd565b60405180910390f35b61009b60048036038101906100969190610595565b6100f4565b005b6100a5610132565b005b6100c160048036038101906100bc919061062e565b6101f5565b6040516100ce919061066a565b60405180910390f35b60006100ed82600161021290919063ffffffff16565b9050919050565b610118816003600560005461010991906106b4565b61011391906106f6565b6102a3565b60008081548092919061012a9061072a565b919050555050565b6000805b6000548110156101f157600360058261014f91906106b4565b61015991906106f6565b91506101e46040518060400160405280601281526020017f4d616e7566616374757265722061636323200000000000000000000000000000815250826040518060400160405280600281526020017f3a200000000000000000000000000000000000000000000000000000000000008152506101df86600161030090919063ffffffff16565b610340565b8080600101915050610136565b5050565b600061020b82600161030090919063ffffffff16565b9050919050565b60008073ffffffffffffffffffffffffffffffffffffffff168273ffffffffffffffffffffffffffffffffffffffff160361024c57600080fd5b8260010160008373ffffffffffffffffffffffffffffffffffffffff1673ffffffffffffffffffffffffffffffffffffffff16815260200190815260200160002060009054906101000a900460ff16905092915050565b6102b9828260016103e29092919063ffffffff16565b8173ffffffffffffffffffffffffffffffffffffffff167f1b75342144357c1041167b44af1fb2fb1922a55e78798a1d0bffae81ae56952260405160405180910390a25050565b600082600001600083815260200190815260200160002060009054906101000a900473ffffffffffffffffffffffffffffffffffffffff16905092915050565b6103dc8484848460405160240161035a9493929190610811565b6040516020818303038152906040527f7c4632a4000000000000000000000000000000000000000000000000000000007bffffffffffffffffffffffffffffffffffffffffffffffffffffffff19166020820180517bffffffffffffffffffffffffffffffffffffffffffffffffffffffff83818316178352505050506104e2565b50505050565b600073ffffffffffffffffffffffffffffffffffffffff168273ffffffffffffffffffffffffffffffffffffffff160361041b57600080fd5b6104258383610212565b1561042f57600080fd5b8183600001600083815260200190815260200160002060006101000a81548173ffffffffffffffffffffffffffffffffffffffff021916908373ffffffffffffffffffffffffffffffffffffffff16021790555060018360010160008473ffffffffffffffffffffffffffffffffffffffff1673ffffffffffffffffffffffffffffffffffffffff16815260200190815260200160002060006101000a81548160ff021916908315150217905550505050565b6104f9816104f16104fc61051d565b63ffffffff16565b50565b60006a636f6e736f6c652e6c6f679050600080835160208501845afa505050565b610528819050919050565b610530610864565b565b600080fd5b600073ffffffffffffffffffffffffffffffffffffffff82169050919050565b600061056282610537565b9050919050565b61057281610557565b811461057d57600080fd5b50565b60008135905061058f81610569565b92915050565b6000602082840312156105ab576105aa610532565b5b60006105b984828501610580565b91505092915050565b60008115159050919050565b6105d7816105c2565b82525050565b60006020820190506105f260008301846105ce565b92915050565b6000819050919050565b61060b816105f8565b811461061657600080fd5b50565b60008135905061062881610602565b92915050565b60006020828403121561064457610643610532565b5b600061065284828501610619565b91505092915050565b61066481610557565b82525050565b600060208201905061067f600083018461065b565b92915050565b7f4e487b7100000000000000000000000000000000000000000000000000000000600052601160045260246000fd5b60006106bf826105f8565b91506106ca836105f8565b92508282026106d8816105f8565b915082820484148315176106ef576106ee610685565b5b5092915050565b6000610701826105f8565b915061070c836105f8565b925082820190508082111561072457610723610685565b5b92915050565b6000610735826105f8565b91507fffffffffffffffffffffffffffffffffffffffffffffffffffffffffffffffff820361076757610766610685565b5b600182019050919050565b600081519050919050565b600082825260208201905092915050565b60005b838110156107ac578082015181840152602081019050610791565b60008484015250505050565b6000601f19601f8301169050919050565b60006107d482610772565b6107de818561077d565b93506107ee81856020860161078e565b6107f7816107b8565b840191505092915050565b61080b816105f8565b82525050565b6000608082019050818103600083015261082b81876107c9565b905061083a6020830186610802565b818103604083015261084c81856107c9565b905061085b606083018461065b565b95945050505050565b7f4e487b7100000000000000000000000000000000000000000000000000000000600052605160045260246000fdfea26469706673582212201b8df976aeb4176133fb89c609116a00970cf37785754c3b622d39e7928f279b64736f6c63430008180033",
  "linkReferences": {},
  "deployedLinkReferences": {}
}