{
  "_format": "hh-sol-artifact-1",
  "contractName": "Insurer",
  "sourceName": "contracts/Roles/Insurer.sol",
  "abi": [
    {
      "inputs": [],
      "stateMutability": "nonpayable",
      "type": "constructor"
    },
    {
      "anonymous": false,
      "inputs": [
        {
          "indexed": true,
          "internalType": "address",
          "name": "account",
          "type": "address"
        }
      ],
      "name": "INAdded",
      "type": "event"
    },
    {
      "anonymous": false,
      "inputs": [
        {
          "indexed": true,
          "internalType": "address",
          "name": "account",
          "type": "address"
        }
      ],
      "name": "INRemoved",
      "type": "event"
    },
    {
      "inputs": [
        {
          "internalType": "address",
          "name": "account",
          "type": "address"
        }
      ],
      "name": "addThisAsIN",
      "outputs": [],
      "stateMutability": "nonpayable",
      "type": "function"
    },
    {
      "inputs": [
        {
          "internalType": "uint256",
          "name": "accNumber",
          "type": "uint256"
        }
      ],
      "name": "getINaddr",
      "outputs": [
        {
          "internalType": "address",
          "name": "",
          "type": "address"
        }
      ],
      "stateMutability": "view",
      "type": "function"
    },
    {
      "inputs": [
        {
          "internalType": "address",
          "name": "account",
          "type": "address"
        }
      ],
      "name": "isIN",
      "outputs": [
        {
          "internalType": "bool",
          "name": "",
          "type": "bool"
        }
      ],
      "stateMutability": "view",
      "type": "function"
    },
    {
      "inputs": [],
      "name": "showAllIN",
      "outputs": [],
      "stateMutability": "view",
      "type": "function"
    }
  ],
  "bytecode": "0x608060405234801561001057600080fd5b5060006002819055506108ca806100286000396000f3fe608060405234801561001057600080fd5b506004361061004c5760003560e01c8063603a319114610051578063674a53f91461005b578063698adc831461008b5780636a8407fc146100a7575b600080fd5b6100596100d7565b005b6100756004803603810190610070919061056e565b61019a565b60405161008291906105dc565b60405180910390f35b6100a560048036038101906100a09190610623565b6101b7565b005b6100c160048036038101906100bc9190610623565b6101f6565b6040516100ce919061066b565b60405180910390f35b6000805b6002548110156101965760026005826100f491906106b5565b6100fe91906106f7565b91506101896040518060400160405280600d81526020017f496e737572657220616363232000000000000000000000000000000000000000815250826040518060400160405280600281526020017f3a2000000000000000000000000000000000000000000000000000000000000081525061018486600061021390919063ffffffff16565b610253565b80806001019150506100db565b5050565b60006101b082600061021390919063ffffffff16565b9050919050565b6101db81600260056002546101cc91906106b5565b6101d691906106f7565b6102f5565b600260008154809291906101ee9061072b565b919050555050565b600061020c82600061035290919063ffffffff16565b9050919050565b600082600001600083815260200190815260200160002060009054906101000a900473ffffffffffffffffffffffffffffffffffffffff16905092915050565b6102ef8484848460405160240161026d9493929190610812565b6040516020818303038152906040527f7c4632a4000000000000000000000000000000000000000000000000000000007bffffffffffffffffffffffffffffffffffffffffffffffffffffffff19166020820180517bffffffffffffffffffffffffffffffffffffffffffffffffffffffff83818316178352505050506103e3565b50505050565b61030b828260006103fd9092919063ffffffff16565b8173ffffffffffffffffffffffffffffffffffffffff167fd9ca880bfd1de8a3f1e9b43db37e2f153997e67347efe3c29ee2938ecf53568160405160405180910390a25050565b60008073ffffffffffffffffffffffffffffffffffffffff168273ffffffffffffffffffffffffffffffffffffffff160361038c57600080fd5b8260010160008373ffffffffffffffffffffffffffffffffffffffff1673ffffffffffffffffffffffffffffffffffffffff16815260200190815260200160002060009054906101000a900460ff16905092915050565b6103fa816103f26104fd61051e565b63ffffffff16565b50565b600073ffffffffffffffffffffffffffffffffffffffff168273ffffffffffffffffffffffffffffffffffffffff160361043657600080fd5b6104408383610352565b1561044a57600080fd5b8183600001600083815260200190815260200160002060006101000a81548173ffffffffffffffffffffffffffffffffffffffff021916908373ffffffffffffffffffffffffffffffffffffffff16021790555060018360010160008473ffffffffffffffffffffffffffffffffffffffff1673ffffffffffffffffffffffffffffffffffffffff16815260200190815260200160002060006101000a81548160ff021916908315150217905550505050565b60006a636f6e736f6c652e6c6f679050600080835160208501845afa505050565b610529819050919050565b610531610865565b565b600080fd5b6000819050919050565b61054b81610538565b811461055657600080fd5b50565b60008135905061056881610542565b92915050565b60006020828403121561058457610583610533565b5b600061059284828501610559565b91505092915050565b600073ffffffffffffffffffffffffffffffffffffffff82169050919050565b60006105c68261059b565b9050919050565b6105d6816105bb565b82525050565b60006020820190506105f160008301846105cd565b92915050565b610600816105bb565b811461060b57600080fd5b50565b60008135905061061d816105f7565b92915050565b60006020828403121561063957610638610533565b5b60006106478482850161060e565b91505092915050565b60008115159050919050565b61066581610650565b82525050565b6000602082019050610680600083018461065c565b92915050565b7f4e487b7100000000000000000000000000000000000000000000000000000000600052601160045260246000fd5b60006106c082610538565b91506106cb83610538565b92508282026106d981610538565b915082820484148315176106f0576106ef610686565b5b5092915050565b600061070282610538565b915061070d83610538565b925082820190508082111561072557610724610686565b5b92915050565b600061073682610538565b91507fffffffffffffffffffffffffffffffffffffffffffffffffffffffffffffffff820361076857610767610686565b5b600182019050919050565b600081519050919050565b600082825260208201905092915050565b60005b838110156107ad578082015181840152602081019050610792565b60008484015250505050565b6000601f19601f8301169050919050565b60006107d582610773565b6107df818561077e565b93506107ef81856020860161078f565b6107f8816107b9565b840191505092915050565b61080c81610538565b82525050565b6000608082019050818103600083015261082c81876107ca565b905061083b6020830186610803565b818103604083015261084d81856107ca565b905061085c60608301846105cd565b95945050505050565b7f4e487b7100000000000000000000000000000000000000000000000000000000600052605160045260246000fdfea2646970667358221220ee1e5fdc6e6b0236c483b6bd00470a1e9cf3ff3864977674fd4f923918b40a6a64736f6c63430008180033",
  "linkReferences": {},
  "deployedLinkReferences": {}
}