{
  "_format": "hh-sol-artifact-1",
  "contractName": "Wholesale",
  "sourceName": "contracts/Roles/Wholesale.sol",
  "abi": [
    {
      "inputs": [],
      "stateMutability": "nonpayable",
      "type": "constructor"
    },
    {
      "anonymous": false,
      "inputs": [
        {
          "indexed": true,
          "internalType": "address",
          "name": "account",
          "type": "address"
        },
        {
          "indexed": false,
          "internalType": "uint256",
          "name": "accNum",
          "type": "uint256"
        }
      ],
      "name": "WDAdded",
      "type": "event"
    },
    {
      "anonymous": false,
      "inputs": [
        {
          "indexed": true,
          "internalType": "address",
          "name": "account",
          "type": "address"
        }
      ],
      "name": "WDRemoved",
      "type": "event"
    },
    {
      "inputs": [
        {
          "internalType": "address",
          "name": "account",
          "type": "address"
        }
      ],
      "name": "addThisAsWD",
      "outputs": [],
      "stateMutability": "nonpayable",
      "type": "function"
    },
    {
      "inputs": [
        {
          "internalType": "uint256",
          "name": "accNumber",
          "type": "uint256"
        }
      ],
      "name": "getWDaddr",
      "outputs": [
        {
          "internalType": "address",
          "name": "",
          "type": "address"
        }
      ],
      "stateMutability": "view",
      "type": "function"
    },
    {
      "inputs": [
        {
          "internalType": "address",
          "name": "account",
          "type": "address"
        }
      ],
      "name": "isWD",
      "outputs": [
        {
          "internalType": "bool",
          "name": "",
          "type": "bool"
        }
      ],
      "stateMutability": "view",
      "type": "function"
    },
    {
      "inputs": [],
      "name": "showAllWD",
      "outputs": [],
      "stateMutability": "view",
      "type": "function"
    }
  ],
  "bytecode": "0x608060405234801561001057600080fd5b5060006002819055506108ef806100286000396000f3fe608060405234801561001057600080fd5b506004361061004b5760003560e01c8062e95cc8146100505780632e11b8561461005a578063b2cc08f81461008a578063b959482a146100ba575b600080fd5b6100586100d6565b005b610074600480360381019061006f91906105a0565b610199565b60405161008191906105e8565b60405180910390f35b6100a4600480360381019061009f9190610639565b6101b6565b6040516100b19190610675565b60405180910390f35b6100d460048036038101906100cf91906105a0565b6101d3565b005b6000805b6002548110156101955760016005826100f391906106bf565b6100fd9190610701565b91506101886040518060400160405280600f81526020017f57686f6c6573616c652061636323200000000000000000000000000000000000815250826040518060400160405280600281526020017f3a2000000000000000000000000000000000000000000000000000000000000081525061018386600061021290919063ffffffff16565b610252565b80806001019150506100da565b5050565b60006101af8260006102f490919063ffffffff16565b9050919050565b60006101cc82600061021290919063ffffffff16565b9050919050565b6101f781600160056002546101e891906106bf565b6101f29190610701565b610385565b6002600081548092919061020a90610735565b919050555050565b600082600001600083815260200190815260200160002060009054906101000a900473ffffffffffffffffffffffffffffffffffffffff16905092915050565b6102ee8484848460405160240161026c949392919061081c565b6040516020818303038152906040527f7c4632a4000000000000000000000000000000000000000000000000000000007bffffffffffffffffffffffffffffffffffffffffffffffffffffffff19166020820180517bffffffffffffffffffffffffffffffffffffffffffffffffffffffff83818316178352505050506103ed565b50505050565b60008073ffffffffffffffffffffffffffffffffffffffff168273ffffffffffffffffffffffffffffffffffffffff160361032e57600080fd5b8260010160008373ffffffffffffffffffffffffffffffffffffffff1673ffffffffffffffffffffffffffffffffffffffff16815260200190815260200160002060009054906101000a900460ff16905092915050565b61039b828260006104079092919063ffffffff16565b8173ffffffffffffffffffffffffffffffffffffffff167fa979e61f070c3dcad6f4ad6e371f80e4647f338cf5e8bb3c517ec5cd52d90e82826040516103e1919061086f565b60405180910390a25050565b610404816103fc610507610528565b63ffffffff16565b50565b600073ffffffffffffffffffffffffffffffffffffffff168273ffffffffffffffffffffffffffffffffffffffff160361044057600080fd5b61044a83836102f4565b1561045457600080fd5b8183600001600083815260200190815260200160002060006101000a81548173ffffffffffffffffffffffffffffffffffffffff021916908373ffffffffffffffffffffffffffffffffffffffff16021790555060018360010160008473ffffffffffffffffffffffffffffffffffffffff1673ffffffffffffffffffffffffffffffffffffffff16815260200190815260200160002060006101000a81548160ff021916908315150217905550505050565b60006a636f6e736f6c652e6c6f679050600080835160208501845afa505050565b610533819050919050565b61053b61088a565b565b600080fd5b600073ffffffffffffffffffffffffffffffffffffffff82169050919050565b600061056d82610542565b9050919050565b61057d81610562565b811461058857600080fd5b50565b60008135905061059a81610574565b92915050565b6000602082840312156105b6576105b561053d565b5b60006105c48482850161058b565b91505092915050565b60008115159050919050565b6105e2816105cd565b82525050565b60006020820190506105fd60008301846105d9565b92915050565b6000819050919050565b61061681610603565b811461062157600080fd5b50565b6000813590506106338161060d565b92915050565b60006020828403121561064f5761064e61053d565b5b600061065d84828501610624565b91505092915050565b61066f81610562565b82525050565b600060208201905061068a6000830184610666565b92915050565b7f4e487b7100000000000000000000000000000000000000000000000000000000600052601160045260246000fd5b60006106ca82610603565b91506106d583610603565b92508282026106e381610603565b915082820484148315176106fa576106f9610690565b5b5092915050565b600061070c82610603565b915061071783610603565b925082820190508082111561072f5761072e610690565b5b92915050565b600061074082610603565b91507fffffffffffffffffffffffffffffffffffffffffffffffffffffffffffffffff820361077257610771610690565b5b600182019050919050565b600081519050919050565b600082825260208201905092915050565b60005b838110156107b757808201518184015260208101905061079c565b60008484015250505050565b6000601f19601f8301169050919050565b60006107df8261077d565b6107e98185610788565b93506107f9818560208601610799565b610802816107c3565b840191505092915050565b61081681610603565b82525050565b6000608082019050818103600083015261083681876107d4565b9050610845602083018661080d565b818103604083015261085781856107d4565b90506108666060830184610666565b95945050505050565b6000602082019050610884600083018461080d565b92915050565b7f4e487b7100000000000000000000000000000000000000000000000000000000600052605160045260246000fdfea2646970667358221220dfbdccbb3eee372edb972d3a3e7301e6f316eb8febbadb38353c7680de55911f64736f6c63430008180033",
  "linkReferences": {},
  "deployedLinkReferences": {}
}